:100000000C945B000C9447060C946E060C949506B9
:100010000C94BC060C94E3060C9478000C947800C5
:100020000C9478000C9478000C947F0D0C94C70D00
:100030000C94580D0C94A30D0C9478000C9478003B
:100040000C94310D0C9478000C941F100C947800D3
:100050000C9478000C9478000C9478000C94780040
:100060000C9496050C947800EE041F053B053B05A7
:1000700028053B053B053B053B053B053B053B0593
:100080003B052A053B053B0539053B053B053B0583
:100090003B05D304DC04E504910B950B990BBE0BD7
:1000A0009F0BA30BA70BBA0BAD0BB10BB50BBE0B84
:1000B000C20BC60BCA0B11241FBECFEFD8E0DEBFA8
:1000C000CDBF15E0A0E0B1E0E6EBFEE202C0059096
:1000D0000D92AC3AB107D9F726E0ACEAB5E001C021
:1000E0001D92AC36B207E1F70E946C100C945917C0
:1000F0000C940000452BB9F1843481F42AB1660FC9
:10010000771FFB01E85EFE4F81E090E0008002C0B7
:10011000880F991F0A94E2F7822B37C0823481F44A
:1001200024B1660F771FFB01E45FFE4F81E090E092
:10013000008002C0880F991F0A94E2F7822B39C011
:10014000833409F04BC027B1660F771FFB01E050E5
:10015000FF4F81E090E0008002C0880F991F0A9451
:10016000E2F7822B3AC0843491F42AB1660F771FEC
:10017000FB01E85EFE4F81E090E0008002C0880F46
:10018000991F0A94E2F7809582238AB908958234F0
:1001900091F424B1660F771FFB01E45FFE4F81E00D
:1001A00090E0008002C0880F991F0A94E2F78095C2
:1001B000822384B90895833489F427B1660F771FA9
:1001C000FB01E050FF4F81E090E0008002C0880F0B
:1001D000991F0A94E2F78095822387B908958434A1
:1001E00089F42BB1660F771FFB01E05CFE4F81E0C5
:1001F00090E0008002C0880F991F0A94E2F7822BDA
:100200008BB90895823489F425B1660F771FFB01FD
:10021000EC5CFE4F81E090E0008002C0880F991FE7
:100220000A94E2F7822B85B90895833481F428B1CA
:10023000660F771FFB01E85DFE4F81E090E00080D4
:1002400002C0880F991F0A94E2F7822B88B908959B
:10025000843491F42BB1660F771FFB01E05CFE4FF5
:1002600081E090E0008002C0880F991F0A94E2F7B5
:10027000809582238BB90895823491F425B1660F5D
:10028000771FFB01EC5CFE4F81E090E0008002C034
:10029000880F991F0A94E2F78095822385B9089503
:1002A000833489F428B1660F771FFB01E85DFE4FA8
:1002B00081E090E0008002C0880F991F0A94E2F765
:1002C0008095822388B90895843489F42BB1660F10
:1002D000771FFB01E05CFE4F81E090E0008002C0F0
:1002E000880F991F0A94E2F782278BB90895823408
:1002F00089F425B1660F771FFB01EC5CFE4F81E0AE
:1003000090E0008002C0880F991F0A94E2F78227CC
:1003100085B90895833481F428B1660F771FFB01F6
:10032000E85DFE4F81E090E0008002C0880F991FD9
:100330000A94E2F7822788B90895843439F489B1A0
:10034000660F771FFB01E05CFE4F11C0823439F469
:1003500083B1660F771FFB01EC5CFE4F08C083344E
:1003600099F486B1660F771FFB01E85DFE4F21E02F
:1003700030E0008002C0220F331F0A94E2F790E0C1
:1003800028233923C901089508958EE48093BB0082
:1003900008958F929F92AF92BF92CF92DF92EF9289
:1003A000FF920F931F93CF93DF93CDB7DEB7ADB618
:1003B000BEB6893531F08A3541F422E0C22ED12C07
:1003C00006C0CC24C394D12C02C0C12CD12C460130
:1003D000880C991CF401EF54FA4F808191818A3086
:1003E00091054CF08436910549F05CF086E991E086
:1003F0000E943F1406C001E010E005C003E010E0D9
:1004000002C002E010E08DB79EB7801B910B0FB6C3
:10041000F8949EBF0FBE8DBFADB7BEB711967D01DC
:10042000F401EF54FA4F81818F9380818F938BEA8F
:1004300091E09F938F93FF92AF930E946F14B80146
:100440006C5F7F4F0D5F1F4F0F900F900F900F90BD
:100450000F900F908DB79EB7861B970B0FB6F89431
:100460009EBF0FBE8DBFEDB7FEB731968AE3ADB725
:10047000BEB711968C9382E58183C114D10411F427
:1004800080E306C0CA94CD2811F481E301C082E361
:1004900082838EE28383D7018C918483043011059B
:1004A00051F011968C91119785830630110519F43E
:1004B00012968C9186838DB79EB7861B970B0FB6CD
:1004C000F8949EBF0FBE8DBF01969C018F01D8018D
:1004D0004D918D01D9014D939D01A8014E1B5F0BDC
:1004E00046175707A4F30E94230E0FB6F894BEBE1A
:1004F0000FBEADBEDF91CF911F910F91FF90EF9096
:10050000DF90CF90BF90AF909F908F90089588E537
:100510000E94C90189E50E94C9018AE50C94C901BC
:100520004F925F926F927F928F929F92AF92BF9203
:10053000CF92DF92EF92FF920F931F93CF93DF93AF
:1005400000D000D000D0CDB7DEB781EBA82E85E07B
:10055000B82E9DECC92E95E0D92ECE0101967C01D6
:100560003C014601F501019111915F01C4010E9416
:100570000809081B190B17FF03C0119501951109F4
:10058000F301019311933F01FBE18F0E911C27EBC7
:10059000A21625E0B20631F789819A818831ECEF05
:1005A0009E0714F488E19CEF8B809C808816990646
:1005B0000CF44C018D819E81881699060CF44C0137
:1005C0008E01095F1F4F092C000CAA08BB08F70118
:1005D000619171917F01072E000C880B990B0E948D
:1005E000E6122B013C01C501B4010E94E6129B01F9
:1005F000AC01C301B2010E943C1220E030E040E2B5
:1006000051E40E94961320E030E040E05FE30E9456
:10061000CB110E94AE126115710511F461E070E01A
:10062000C6010E948708FBE1CF0ED11CE016F1063F
:1006300071F626960FB6F894DEBF0FBECDBFDF91E0
:10064000CF911F910F91FF90EF90DF90CF90BF90CF
:10065000AF909F908F907F906F905F904F90089594
:1006600080913406909135068130910509F05FC084
:100670002091B7053091B805232BD9F49093B80594
:100680008093B70580915201909153019093B605E4
:100690008093B5050E94900288E50E94C90189E512
:1006A0000E94C9018AE50E94C9018EEA91E00E9478
:1006B0003F148091DE059091DF050597C4F5809188
:1006C000F9059091FA05059794F58091140690919B
:1006D0001506059764F58091C5059091C605892B8F
:1006E00081F481E090E09093C6058093C50582E097
:1006F00090E090933506809334061092B8051092DE
:10070000B7058091C5059091C605029781F481E0F7
:1007100090E09093C6058093C50583E090E09093A8
:100720003506809334061092B8051092B705809173
:10073000340690913506029709F045C08091B705BF
:100740009091B805892BE9F481E090E09093B80589
:100750008093B70588E50E94C90189E50E94C90117
:1007600080915001909151019093B6058093B50509
:100770000E9490028AE50E94C90183EC91E00E94E8
:100780003F148091DE059091DF050597E4F4809198
:10079000F9059091FA050597B4F4809114069091AB
:1007A0001506059784F482E090E09093C605809347
:1007B000C50581E090E09093350680933406109251
:1007C000B8051092B70580913406909135060397CD
:1007D00009F073C08091B7059091B805892B69F530
:1007E00081E090E09093B8058093B7058091560121
:1007F000909157019093B2058093B1058091540177
:10080000909155019093B4058093B3058091520166
:10081000909153019093B6058093B5050E94900284
:1008200088E50E94C90189E50E94C9018AE50E9404
:10083000C9018AED91E00E943F148091DE059091FC
:10084000DF050597D4F58091F9059091FA05059794
:10085000A4F58091140690911506059774F5809182
:10086000C5059091C605019781F483E090E09093CF
:10087000C6058093C50584E090E09093350680938B
:1008800034061092B8051092B7058091C505909175
:10089000C605049791F483E090E09093C605809399
:1008A000C50510923506109234061092BA051092C2
:1008B000B9051092B8051092B70580913406909151
:1008C0003506049709F055C08091B7059091B80599
:1008D000892B69F581E090E09093B8058093B70586
:1008E00080915601909157019093B2058093B10584
:1008F00080915401909155019093B4058093B30574
:1009000080915001909151019093B6058093B50567
:100910000E94900288E50E94C90189E50E94C901F0
:100920008AE50E94C90183EF91E00E943F14809103
:10093000DE059091DF050597E4F48091F90590912B
:10094000FA050597B4F48091140690911506059761
:1009500084F484E090E09093C6058093C50583E01D
:1009600090E090933506809334061092B80510926B
:10097000B70508958091B9059091BA05892B09F0C2
:100980007AC0E0911E068E2FEE0F990BAA0BBB0BBF
:10099000FC01E354F109E831F10508F06CC0EC5CAE
:1009A000FF4F0C94C4118FE196E00E9403149093C2
:1009B000B2058093B10508958FE196E00E9403147B
:1009C0009093B4058093B30508958FE196E00E945B
:1009D00003149093B6058093B505089580911F0682
:1009E000843709F048C080912006853789F48AE56C
:1009F00090E0909357018093560190935501809316
:100A00005401909353018093520185E090E012C00D
:100A10008F3689F585E090E09093570180935601D9
:100A200090935501809354012AE530E030935301AF
:100A300020935201909351018093500108958FE1CA
:100A400096E00E9403149093B0058093AF0508953B
:100A50000C94870281E090E09093BA058093B905E9
:100A60001092C6051092C505909335068093340602
:100A700008950C9490020895873499F040F48D32D3
:100A8000B1F028F19DEB980F923008F50AC083353C
:100A900041F018F48035D9F404C098EA980F9330E7
:100AA000B0F491E09093AC0580931E060895E09118
:100AB000AC05F0E0E25EF94F10820E94BA048AE0D1
:100AC000EEE1F6E0DF011D928A95E9F70895E091E5
:100AD000AC0591E09E0F9093AC05F0E0E25EF94F1B
:100AE0008083089565EC71E08CE395E00E947D05BC
:100AF00088E00C9486050C9472059093BE05809353
:100B0000BD057093BC056093BB050895F894880FEC
:100B10008093BA0085EC8093BC0078940895F89493
:100B20001092BC001092BA00789408951F920F9210
:100B30000FB60F9211242F933F934F935F936F93B0
:100B40007F938F939F93AF93BF93EF93FF93809186
:100B5000B900887F803859F028F4811115C01092AF
:100B6000BC0012C0883A59F0883B49F00DC0809112
:100B7000BB00E091BD05F091BE05099505C0E0916F
:100B8000BB05F091BC05099585EC8093BC00FF91F5
:100B9000EF91BF91AF919F918F917F916F915F91F5
:100BA0004F913F912F910F900FBE0F901F9018956E
:100BB0008230910539F08330910531F0019739F495
:100BC00084E003C088E001C08CE080936900089550
:100BD00088309105DCF42091680021602093680042
:100BE00070933F0660933E0640916B00FC01EE0F50
:100BF000FF1FE85AFE4F21E030E0008002C0220FC4
:100C0000331F0A94E2F7242B20936B009C01285099
:100C1000310927303105E0F42091680022602093EB
:100C2000680070933D0660933C0620916C00FC01C7
:100C3000EE0FFF1FE85AFE4F81E090E0008002C0F7
:100C4000880F991F0A94E2F7822B80936C00089515
:100C500080319105DCF020916800246020936800C9
:100C6000709337066093360620916D00880F991FA8
:100C7000FC01E85AFE4F81E090E0008002C0880F3E
:100C8000991F0A94E2F7822B80936D0008951F92BA
:100C90000F920FB60F9211242F933F934F935F93B0
:100CA0006F937F938F939F93AF93BF93EF93FF9334
:100CB000E0913806F09139060995FF91EF91BF91C7
:100CC000AF919F918F917F916F915F914F913F91E4
:100CD0002F910F900FBE0F901F9018951F920F929B
:100CE0000FB60F9211242F933F934F935F936F93FF
:100CF0007F938F939F93AF93BF93EF93FF93E09175
:100D00003A06F0913B060995FF91EF91BF91AF91A3
:100D10009F918F917F916F915F914F913F912F9113
:100D20000F900FBE0F901F9018951F920F920FB645
:100D30000F9211242F933F934F935F936F937F9361
:100D40008F939F93AF93BF93EF93FF93E0913E06F2
:100D5000F0913F060995FF91EF91BF91AF919F915F
:100D60008F917F916F915F914F913F912F910F9054
:100D70000FBE0F901F9018951F920F920FB60F92F3
:100D800011242F933F934F935F936F937F938F9390
:100D90009F93AF93BF93EF93FF93E0913C06F09145
:100DA0003D060995FF91EF91BF91AF919F918F9172
:100DB0007F916F915F914F913F912F910F900FBE57
:100DC0000F901F9018951F920F920FB60F9211243B
:100DD0002F933F934F935F936F937F938F939F9343
:100DE000AF93BF93EF93FF93E0913606F0913706F0
:100DF0000995FF91EF91BF91AF919F918F917F9155
:100E00006F915F914F913F912F910F900FBE0F9077
:100E10001F901895009789F46230710541F0633096
:100E2000710539F06130710569F481E003C082E039
:100E300001C083E0809369000895019719F4CB0104
:100E40000C94D8050895CF93DF93EB01009759F4E4
:100E5000BA0180E090E00E940A07E89AD093390630
:100E6000C09338060AC0019741F4CA010E94D80510
:100E7000E99AD0933B06C0933A06DF91CF9108954B
:100E80002FEF89EF90E0215080409040E1F700C0C3
:100E9000000062E070E084E40E949D01892B51F023
:100EA00081E090E090934106809340068EE092E0CE
:100EB0000C943F14F89498E088E10FB6F894A89544
:100EC000809360000FBE90936000FFCF2FEF89EFFB
:100ED00090E0215080409040E1F700C0000060E0C9
:100EE00070E083E40E949D01892B61F061E070E075
:100EF00083E40E949D01892B29F061E070E081E08C
:100F000090E012C060E070E083E40E949D0161E027
:100F100070E0892B39F483E40E949D01892B31F024
:100F200060E070E080E090E00E949F0962E070E085
:100F300083E40E949D01892B51F063E070E083E41B
:100F40000E949D01892B19F060E070E015C062E0FD
:100F500070E083E40E949D01892B29F060E070E03D
:100F600081E090E00BC063E070E083E40E949D01AB
:100F7000892B31F061E070E082E090E00C949F09F1
:100F800008950C94300341E050E065E070E082E4A5
:100F90000E947A0041E050E064E070E082E40E9448
:100FA0007A0041E050E063E070E082E40E947A0061
:100FB00041E050E062E070E082E40E947A0041E0AB
:100FC00050E061E070E082E40E947A0041E050E08D
:100FD00060E070E082E40E947A0041E050E067E067
:100FE00070E084E40E947A0041E050E066E070E046
:100FF00084E40E947A0041E050E065E070E084E41F
:101000000E947A0041E050E064E070E084E40E94D5
:101010007A0041E050E063E070E084E40C947A00F0
:10102000AF92BF92CF92DF92EF92FF920F931F93F6
:10103000CF93DF936B01EC0188E2E82E86E0F82E77
:1010400000E010E0AA24A394B12C0C151D058CF42B
:10105000BE86AD861A8A198AF701119211927F0114
:1010600069817A8188810E9428010F5F1F4F6B96EA
:10107000ECCFDF91CF911F910F91FF90EF90DF9018
:10108000CF90BF90AF900895CF92DF92EF92FF92F2
:101090000F931F93CF93DF936B01EC0188E2E82E4F
:1010A00086E0F82E00E010E00C151D058CF41E867D
:1010B0001D861A8A198AF701119211927F0169819E
:1010C0007A8188810E94EF000F5F1F4F6B96ECCFF3
:1010D000DF91CF911F910F91FF90EF90DF90CF9014
:1010E000089520E030E0261737073CF4FC01128A0F
:1010F000118A2F5F3F4F4B96F6CF08956093C1053D
:101100007093C2058093C3059093C4050895FC01B4
:10111000748B638B0895CF93DF93FC01258536850F
:1011200021303105F1F4EC01728B618B41305105B6
:1011300041F4508B47876481758183810E94EF0061
:1011400009C0452BA1F4108A1786648175818381BB
:101150000E9428016F8178858E81DF91CF910C9458
:10116000EF008FE192E0DF91CF910C943F14DF917B
:10117000CF910895CF92DF92EF92FF920F931F933A
:10118000CF93DF937B01EC0100E010E0CC24C3940B
:10119000D12C0E151F056CF4DA8EC98E41E050E09B
:1011A0006FEF7FE7CE010E948B080F5F1F4F6B969A
:1011B000F0CFDF91CF911F910F91FF90EF90DF90D3
:1011C000CF900895FC0120E030E081E090E0261708
:1011D00037075CF4418D528D4130510511F480E0A8
:1011E00090E02F5F3F4F7B96F2CF0895FC01218561
:1011F0003285621B730B161617061CF441E050E093
:1012000005C071956195710940E050E00C948B0820
:10121000CF92DF92EF92FF92CF93DF93EC0169853B
:101220007A85072E000C880B990B0E94E6126B0141
:101230007C016B857C85072E000C880B990B0E9426
:10124000E6129B01AC01C701B6010E943C1220E0EE
:1012500030E048EC52E40E94961320E030E040E099
:101260005FE30E94CB110E94AE12CB01DF91CF91C0
:10127000FF90EF90DF90CF900895CF92DF92EF92A2
:10128000FF92CF93DF93EC01072E000C880B990B94
:101290000E94E61220E030E048EC52E40E943C124A
:1012A0006B017C016B857C85072E000C880B990BEC
:1012B0000E94E6129B01AC01C701B6010E94961381
:1012C0000E94AE12CE01DF91CF91FF90EF90DF90A0
:1012D000CF900C94F6088F929F92AF92BF92CF92CC
:1012E000DF92EF920F931F93CF93DF93CDB7DEB7CB
:1012F000FC01608352834183238315830483E68248
:10130000D086C7821286118616861586128A118AA1
:101310008E859F85948B838B858A968AA78AB08ECB
:10132000128E118ECF01DF91CF911F910F91EF900F
:10133000DF90CF90BF90AF909F908F9008952BE15A
:10134000289FF001299FF00D1124E353FA4F218DBE
:10135000328D2130310561F56130710549F4108A13
:10136000178640E050E06FEF7FE7CF010C948B08C9
:10137000672BF1F4418952892FEF3FE7241B350B8E
:101380003487238712861186128A118A128E118E53
:101390003F932F939F938F9381E492E09F938F933A
:1013A0000E9429140F900F900F900F900F900F90A4
:1013B00008958F929F92AF92BF92CF92DF92EF9259
:1013C000FF920F931F93CF93DF93CDECD5E008E20C
:1013D00016E08D859E85019709F084C089899A89D8
:1013E000181619060CF07EC0F801608171817B012E
:1013F000FFEFEF1AFF0AF801F182E0826B897C8926
:10140000072E000C880B990B0E94E61220E030E0BA
:1014100044EB53E40E94961320E030E040E752E4AE
:101420000E943C122D893E894F89588D0E943C12A2
:101430009B01AC0160E070E08AE794E40E943C12FA
:101440002091C1053091C2054091C3055091C4055A
:101450000E943C124B015C01B701FF0C880B990BF9
:101460000E94E6126B017C0120E030E040E05FE387
:10147000C501B4010E9496139B01AC01C701B601DE
:101480000E9437126F817885181624F08E810E9491
:10149000EF0003C08E810E942801F80160817181F4
:1014A000072E000C880B990B0E94E6129B01AC01E1
:1014B000C501B4010E9437121816A4F0F801118278
:1014C000108289899A8901979A8B898B2F8538890F
:1014D00089859A852130310511F4019601C0019763
:1014E0009A8789876B960E5F1F4FF6E0CE31DF0734
:1014F00009F06FCFDF91CF911F910F91FF90EF9087
:10150000DF90CF90BF90AF909F908F90089524B5BB
:101510002C7F24BD25B5277E25BDEEE6F0E0208199
:101520002160208325B5236025BD909345068093D7
:1015300044060895EFE6F0E080818F7D808380810E
:101540008D7F808380818B7F808380818E7F80836D
:101550000895892B29F080916F00806280936F003D
:10156000672B29F080916F00826080936F00452B7C
:1015700029F080916F00846080936F00232B29F005
:1015800080916F00816080936F00089520918000AA
:101590002F7320938000209180002F7C2093800067
:1015A0008230910549F08330910551F0019769F43B
:1015B00080918000806407C080918000806803C0B3
:1015C00080918000806C809380006230710551F0C2
:1015D0006330710559F06130710569F480918000C4
:1015E000806107C080918000806203C0809180008C
:1015F0008063809380000895CF92DF92EF92FF92F4
:1016000020E030E04AE754E40E943C126B017C0188
:1016100027E337E346E85BE30E94371218161CF015
:1016200081E090E033C027E337E346E05DE3C701A4
:10163000B6010E94371218161CF088E090E026C010
:1016400027E337E346E85EE3C701B6010E9437129D
:1016500018161CF080E490E019C027E337E346E851
:101660005FE3C701B6010E94371218161CF080E034
:1016700091E00CC027E337E346E850E4C701B60128
:101680000E943712181634F080E094E09093C00561
:101690008093BF0580918100887F80938100809135
:1016A000BF059091C00580349105C9F04CF481309C
:1016B000910589F00897E1F480918100826016C05D
:1016C000811521E0920779F08115944089F4809189
:1016D000810085600BC080918100816007C080918E
:1016E0008100836003C080918100846080938100C9
:1016F000FF90EF90DF90CF900895209180002C7F95
:101700002093800020918100277E20938100019703
:101710008F30910508F048C0845B9F4FFC010C940A
:10172000C41180918000816007C080918000826038
:1017300003C0809180008360809380000895809131
:101740008000816007C080918000826003C080912A
:10175000800083608093800011C080918000816050
:1017600007C080918000826003C080918000836008
:101770008093800080918100806114C080918100FD
:10178000886010C080918000816007C080918000D7
:10179000826003C08091800083608093800080918C
:1017A000810088618093810008958F929F92AF920B
:1017B000BF92CF92DF92EF92FF92CF93DF93EA0135
:1017C00020E030E040E05FE30E9496136B017C0173
:1017D00084E090E00E947D0BC701B6010E94FC0AE4
:1017E000EFE6F0E08081826080832091BF05309138
:1017F000C005032E000C440B550B60E074E284EF2F
:1018000090E00E948311CA01B9010E94E4124B01C9
:101810005C0120E030E04AE754E4C701B6010E94D1
:101820003C129B01AC01C501B4010E94961320E05B
:1018300030E040E85FE30E94CB110E94AE1270934B
:10184000890060938800D0934306C0934206DF91DD
:10185000CF91FF90EF90DF90CF90BF90AF909F908F
:101860008F9008954F925F926F927F928F929F9286
:10187000AF92BF92CF92DF92EF92FF920F931F939E
:10188000CF93DF93CDB7DEB728970FB6F894DEBFBE
:101890000FBECDBF4B015C0129833A834B835C8330
:1018A000ED82FE820F8318878EE090E00E947D0B10
:1018B000C501B4010E94FC0A2091BF053091C0050A
:1018C000032E000C440B550BC12C84E2D82E84EF60
:1018D000E82EF12CC701B6010E948311CA01B9019B
:1018E0000E94E4122B013C0120E030E04AE754E47E
:1018F000C501B4010E943C129B01AC01C301B201BD
:101900000E94961320E030E040E85FE30E94CB1194
:101910000E94AE12E6E8F0E0718360832091BF057B
:101920003091C005032E000C440B550BC701B601C6
:101930000E948311CA01B9010E94E4124B015C01AB
:1019400020E030E04AE754E469817A818B819C8110
:101950000E943C129B01AC01C501B4010E94961388
:1019600020E030E040E85FE30E94CB110E94AE121D
:1019700008E810E0F801718360832091BF05309181
:10198000C005032E000C440B550BC701B6010E9485
:101990008311CA01B9010E94E4126B017C0120E0AD
:1019A00030E04AE754E46D817E818F8198850E9402
:1019B0003C129B01AC01C701B6010E94961320E0C6
:1019C00030E040E85FE30E94CB110E94AE129AE83B
:1019D000E92EF12CF7017183608363E070E083E00E
:1019E00090E00E94C60AE6E8F0E0808191819F9332
:1019F0008F9389E692E09F938F930E942914F801B8
:101A0000808191819F938F9384E792E09F938F933E
:101A10000E942914F701808191819F938F9380E820
:101A200092E09F938F930E9429140FB6F894DEBF23
:101A30000FBECDBF28960FB6F894DEBF0FBECDBF48
:101A4000DF91CF911F910F91FF90EF90DF90CF909A
:101A5000BF90AF909F908F907F906F905F904F90CE
:101A600008951F920F920FB60F9211242F933F9358
:101A70004F935F936F937F938F939F93AF93BF9396
:101A8000EF93FF93E0914406F09145060995FF918D
:101A9000EF91BF91AF919F918F917F916F915F91E6
:101AA0004F913F912F910F900FBE0F901F9018955F
:101AB0001F920F920FB60F9211242F933F934F93C3
:101AC0005F936F937F938F939F93AF93BF93EF93A6
:101AD000FF93E0914206F09143060995FF91EF9143
:101AE000BF91AF919F918F917F916F915F914F9136
:101AF0003F912F910F900FBE0F901F9018951F923E
:101B00000F920FB60F9211242F933F934F935F9331
:101B10006F937F938F939F93AF93BF93EF93FF93B5
:101B20000E94580DFF91EF91BF91AF919F918F91BE
:101B30007F916F915F914F913F912F910F900FBEC9
:101B40000F901F9018951F920F920FB60F921124AD
:101B50002F933F934F935F936F937F938F939F93B5
:101B6000AF93BF93EF93FF930E94580DFF91EF91B6
:101B7000BF91AF919F918F917F916F915F914F91A5
:101B80003F912F910F900FBE0F901F9018951F92AD
:101B90000F920FB60F9211242F933F934F935F93A1
:101BA0006F937F938F939F93AF93BF93EF93FF9325
:101BB0000E94580DFF91EF91BF91AF919F918F912E
:101BC0007F916F915F914F913F912F910F900FBE39
:101BD0000F901F9018958CE892E00E943F1484E9C2
:101BE00092E00E943F1485EB92E00E943F1487ED43
:101BF00092E00E943F148EEF92E00E943F148FE229
:101C000093E00E943F148CE593E00E943F1488E625
:101C100093E00E943F1489E893E00E943F148AEA0F
:101C200093E00E943F148FEB93E00E943F1483EDFA
:101C300093E00E943F1488EE93E00E943F1485EFEA
:101C400093E00C943F14CF92DF92EF92FF920F93A8
:101C50001F93CF93DF937C016B01633071055CF0C0
:101C6000C70104960E9403148C01F701C2810C2E57
:101C7000000CDD0BE097F7018181883409F465C120
:101C8000ECF4843409F43DC13CF4813409F4E1C03E
:101C9000823409F465C085C1863409F441C00CF46E
:101CA00042C189ED94E00E943F140DEC15E0C0E0C4
:101CB000D0E096EFE92E94E0F92EF3C0863509F4D2
:101CC00078C0C4F4823509F49CC0833509F069C139
:101CD00081E395E00E943F1463E070E08DEC95E0B5
:101CE000DF91CF911F910F91FF90EF90DF90CF90F8
:101CF0000C947108883609F44AC1823709F437C157
:101D0000873609F04EC186E095E00E943F140DEC45
:101D100015E0C0E0D0E083E2E82E85E0F82ED9C0DF
:101D2000F5E0CF16D1041CF482E094E03CC1DF93CF
:101D3000CF931F930F9380E394E09F938F930E9420
:101D400029140F900F900F900F900F900F902BE190
:101D50002C9FC0012D9F900D112441E050E01CC02C
:101D6000F5E0CF16D10404F3DF93CF931F930F93C5
:101D700083E594E09F938F930E9429140F900F9016
:101D80000F900F900F900F902BE12C9FC0012D9F73
:101D9000900D112440E050E0B80183539A4FDF9139
:101DA000CF911F910F91FF90EF90DF90CF900C9407
:101DB0008B08F5E0CF16D1040CF4B6CF1F930F9328
:101DC000DF93CF9387E794E09F938F930E9429142A
:101DD0000F900F900F900F900F900F902BE12C9F72
:101DE000C0012D9F900D1124B80183539A4FDF91AC
:101DF000CF911F910F91FF90EF90DF90CF900C94B7
:101E00008708F5E0CF16D1040CF48ECF1F930F9303
:101E1000DF93CF938AE994E09F938F930E942914D4
:101E20000F900F900F900F900F900F902BE12C9F21
:101E3000C0012D9F900D1124B80183539A4FDF915B
:101E4000CF911F910F91FF90EF90DF90CF900C9466
:101E50003D09F5E0CF16D1040CF466CF1F930F9324
:101E6000DF93CF938EEA94E09F938F930E9429147F
:101E70000F900F900F900F900F900F902BE12C9FD1
:101E8000C0012D9F900D1124B80183539A4FDF910B
:101E9000CF911F910F91FF90EF90DF90CF900C9416
:101EA000F608C8010E9408099F938F93DF93CF9390
:101EB000FF92EF920E9429142196055E1F4F0F900A
:101EC0000F900F900F900F900F90C330D10549F7EE
:101ED00074C0F80182858F9381858F93DF93CF93B0
:101EE000FF92EF920E9429142196055E1F4F0F90DA
:101EF0000F900F900F900F900F90C330D10549F7BE
:101F00005CC081E495E00E943F1463E070E08DECDA
:101F100095E0DF91CF911F910F91FF90EF90DF90AF
:101F2000CF900C94440881E595E00E943F1463E053
:101F300070E08DEC95E0DF91CF911F910F91FF90B4
:101F4000EF90DF90CF900C94100880E695E00E940F
:101F50003F1463E070E08DEC95E0DF91CF911F912D
:101F60000F91FF90EF90DF90CF900C94BA0888E724
:101F700095E00E943F14F89498E088E10FB6F89439
:101F8000A895809360000FBE90936000FFCFDF9113
:101F9000CF911F910F91FF90EF90DF90CF900C9415
:101FA000EB0D81E895E0DF91CF911F910F91FF90AC
:101FB000EF90DF90CF900C943F14DF91CF911F9161
:101FC0000F91FF90EF90DF90CF9008950F931F93A4
:101FD000CF93DF938A01E90120E130E040E050E057
:101FE0000E94A511CA01B901980140E050E00E9489
:101FF000A511215031093093C5002093C40088E910
:102000008093C1008EE08093C200D0934706C093B6
:102010004606DF91CF911F910F9108959091C000D6
:1020200095FFFCCF8093C60080E090E008958091FA
:10203000C00087FFFCCF8091C60090E008951F92FA
:102040000F920FB60F9211242F933F934F935F93EC
:102050006F937F938F939F93AF93BF93EF93FF9370
:1020600088E891E00E9417108D3071F08A3331F0CA
:10207000E09128068A30B9F46E2F08C091E0909361
:1020800028068093480617C06091280670E0FB017F
:10209000E85BF94F1082E0914606F091470688E42C
:1020A00096E0099508C091E09E0F90932806F0E015
:1020B000E85BF94F8083FF91EF91BF91AF919F91C2
:1020C0008F917F916F915F914F913F912F910F90E1
:1020D0000FBE0F901F901895CF93DF93CDB7DEB74B
:1020E0006B970FB6F894DEBF0FBECDBF10924106BE
:1020F0001092400688E891E0909367068093660608
:10210000909369068093680623E23EE040E051EE3A
:1021100060E074E284EF90E00E94E60F41E050E05E
:1021200060E477E080E090E00E9423070E94C3070C
:102130001F928AE0F82EFF92812C912C90EFA92E0D
:1021400090E4B92E25E0C22ED12C34E4E32E04E035
:1021500010E024E443E050E064E4CE0101960E94E4
:102160006B098BE1FE013196ADECB5E001900D926B
:102170008A95E1F71F92FF9246E6842E982C46EE50
:10218000A42E4FE3B42EC12CD12C52E4E52E07E04F
:1021900010E024E446E050E064E4CE0101960E94A1
:1021A0006B098BE1FE013196A8EEB5E001900D922E
:1021B0008A95E1F71F92FF9263E0C62ED12C02E0D0
:1021C00010E022E441E050E062E4CE0101960E947A
:1021D0006B098BE1FE013196A3E0B6E001900D9210
:1021E0008A95E1F766E677E088E090E00E94E805EE
:1021F00066E677E089E090E00E94E80566E677E031
:102200008AE090E00E94E80566E677E08BE090E0E7
:102210000E94E805789482E192E00E943F140F90BA
:102220000F900F900F900F900F908091400690911B
:1022300041068130910509F1A8F08230910581F1C4
:1022400083309105B1F781EC97E00E94870A2AEA72
:1022500036EE86E991E02150304080409040D9F739
:102260000000E3CF65E070E082E40E94EF0064E0EC
:1022700070E082E40E942801D8CF8EE092E00E94B4
:102280003F1465E070E082E40E94280164E070E0A1
:1022900082E40E94EF001093410600934006C5CFF0
:1022A00086E192E00E943F1460E070E080E89FE3E6
:1022B0000E947E0863E070E08DEC95E00E941008BB
:1022C00049ED59E060E070E080E89FE30E94D50BA3
:1022D00063E070E08DEC95E00E94BA0863E070E086
:1022E0008DEC95E00E94E208892BC1F383E090E039
:1022F00090934106809340068BE192E00E943F1448
:102300000E947B0592CFA1E21A2EAA1BBB1BFD01E6
:102310000DC0AA1FBB1FEE1FFF1FA217B307E407C4
:10232000F50720F0A21BB30BE40BF50B661F771F1C
:10233000881F991F1A9469F76095709580959095FC
:102340009B01AC01BD01CF010895052E97FB1EF442
:1023500000940E94BC1157FD07D00E94831107FC16
:1023600003D04EF40C94BC115095409530952195B6
:102370003F4F4F4F5F4F08959095809570956195B1
:102380007F4F8F4F9F4F0895EE0FFF1F0590F491E1
:10239000E02D09945058BB27AA270E94E2110C9403
:1023A0005C130E944E1338F00E94551320F039F44C
:1023B0009F3F19F426F40C944B130EF4E095E7FBC1
:1023C0000C944513E92F0E946D1358F3BA17620756
:1023D00073078407950720F079F4A6F50C948F1302
:1023E0000EF4E0950B2EBA2FA02D0B01B901900130
:1023F0000C01CA01A0011124FF27591B99F0593F74
:1024000050F4503E68F11A16F040A22F232F342FBB
:102410004427585FF3CF469537952795A795F04009
:102420005395C9F77EF41F16BA0B620B730B840B1E
:10243000BAF09150A1F0FF0FBB1F661F771F881FD6
:10244000C2F70EC0BA0F621F731F841F48F487952E
:1024500077956795B795F7959E3F08F0B0CF939520
:10246000880F08F09927EE0F9795879508950E9499
:10247000211308F481E008950E9450120C945C131B
:102480000E94551358F00E944E1340F029F45F3F0C
:1024900029F00C94451351110C9490130C944B1388
:1024A0000E946D1368F39923B1F3552391F3951BA3
:1024B000550BBB27AA2762177307840738F09F5F65
:1024C0005F4F220F331F441FAA1FA9F335D00E2ED2
:1024D0003AF0E0E832D091505040E695001CCAF73F
:1024E0002BD0FE2F29D0660F771F881FBB1F261702
:1024F00037074807AB07B0E809F0BB0B802DBF01D9
:10250000FF2793585F4F3AF09E3F510578F00C94A7
:1025100045130C9490135F3FE4F3983ED4F38695F3
:1025200077956795B795F7959F5FC9F7880F911DC8
:102530009695879597F90895E1E0660F771F881FB4
:10254000BB1F621773078407BA0720F0621B730B67
:10255000840BBA0BEE1F88F7E09508950E94B51220
:102560006894B1110C94901308950E94751388F02B
:102570009F5798F0B92F9927B751B0F0E1F0660F47
:10258000771F881F991F1AF0BA95C9F714C0B13088
:1025900091F00E948F13B1E008950C948F13672F70
:1025A000782F8827B85F39F0B93FCCF386957795B7
:1025B0006795B395D9F73EF49095809570956195A0
:1025C0007F4F8F4F9F4F0895E89409C097FB3EF4CB
:1025D00090958095709561957F4F8F4F9F4F992370
:1025E000A9F0F92F96E9BB279395F69587957795EE
:1025F0006795B795F111F8CFFAF4BB0F11F460FFAE
:102600001BC06F5F7F4F8F4F9F4F16C0882311F005
:1026100096E911C0772321F09EE8872F762F05C019
:10262000662371F096E8862F70E060E02AF09A95B4
:10263000660F771F881FDAF7880F9695879597F9A9
:102640000895990F0008550FAA0BE0E8FEEF161643
:102650001706E807F907C0F012161306E407F50796
:1026600098F0621B730B840B950B39F40A2661F00A
:10267000232B242B252B21F408950A2609F4A140AD
:10268000A6958FEF811D811D089597F99F6780E8BA
:1026900070E060E008959FEF80EC089500240A94B4
:1026A0001616170618060906089500240A9412162D
:1026B0001306140605060895092E0394000C11F460
:1026C000882352F0BB0F40F4BF2B11F460FF04C00D
:1026D0006F5F7F4F8F4F9F4F089557FD9058440F66
:1026E000551F59F05F3F71F04795880F97FB991F71
:1026F00061F09F3F79F0879508951216130614062E
:10270000551FF2CF4695F1DF08C0161617061806BA
:10271000991FF1CF86957105610508940895E89495
:10272000BB2766277727CB0197F908950E94A91345
:102730000C945C130E944E1338F00E94551320F045
:10274000952311F00C9445130C944B1311240C9405
:1027500090130E946D1370F3959FC1F3950F50E095
:10276000551F629FF001729FBB27F00DB11D639F43
:10277000AA27F00DB11DAA1F649F6627B00DA11DE9
:10278000661F829F2227B00DA11D621F739FB00D8F
:10279000A11D621F839FA00D611D221F749F3327FF
:1027A000A00D611D231F849F600D211D822F762F98
:1027B0006A2F11249F5750409AF0F1F088234AF075
:1027C000EE0FFF1FBB1F661F771F881F91505040E1
:1027D000A9F79E3F510580F00C9445130C9490137B
:1027E0005F3FE4F3983ED4F3869577956795B79568
:1027F000F795E7959F5FC1F7FE2B880F911D969582
:10280000879597F90895FC0188279927E8942191E5
:102810002032E9F3293010F02E30C8F32B3241F08A
:102820002D3239F4689404C00E942114820F911D46
:10283000219120532A30C0F31EF4909581959F4F2B
:1028400008957AE0979F902D879F802D910D1124F8
:102850000895A0E0B0E0EFE2F4E10C943217AE018D
:102860004B5F5F4FFA0161917191AF0180916806F2
:10287000909169060E949114E2E00C944E170F9318
:102880001F93CF93DF93E0916806F091690623814F
:1028900021FF1BC08C01D0E0C0E0F80181918F01C5
:1028A0006091680670916906DB011896ED91FC91C4
:1028B0001997882331F00995892B79F3DFEFCFEF52
:1028C000ECCF8AE00995892B19F08FEF9FEF02C0BA
:1028D0008D2F9C2FDF91CF911F910F910895AEE026
:1028E000B0E0E5E7F4E10C9430170D891E8986E02D
:1028F0008C831A8309838FEF9FE79E838D83AE01BC
:10290000475E5F4F6F89788DCE0101960E949114CA
:10291000EF81F885E00FF11F10822E96E4E00C9411
:102920004C17ABE0B0E0E7E9F4E10C9422176C013E
:102930007B018A01FC0117821682838181FFCCC151
:10294000CE0101963C01F6019381F70193FD85913B
:1029500093FF81917F01882309F4BAC1853239F44C
:1029600093FD859193FF81917F01853229F4B60112
:1029700090E00E948816E7CF912C212C312CFFE1AA
:10298000F315D8F08B3279F038F4803279F0833255
:10299000A1F4232D20611DC08D3261F0803369F4D4
:1029A000232D216016C0832D8260382EE32DE46034
:1029B0003E2E2AC0F32DF8601DC037FC2DC020ED3F
:1029C000280F2A3040F08E32B9F436FC81C1232D15
:1029D0002064322E19C036FE06C08AE0989E200D73
:1029E0001124922E11C0EAE02E9E200D1124222ED9
:1029F000F32DF0623F2E08C08C3621F4832D8068C1
:102A0000382E02C0883641F4F70193FD859193FF7B
:102A100081917F018111B3CF982F9F7D9554933081
:102A200028F40C5F1F4F9FE399830DC0833631F06C
:102A3000833771F0833509F059C021C0F8018081D6
:102A400089830E5F1F4F88248394912C530113C0F8
:102A50002801F2E04F0E511CF801A080B18036FE33
:102A600003C0692D70E002C06FEF7FEFC5010E94C7
:102A70007D164C018201F32DFF773F2E16C02801F1
:102A800022E0420E511CF801A080B18036FE03C046
:102A9000692D70E002C06FEF7FEFC5010E947216D2
:102AA0004C01F32DF0683F2E820133FC1BC0822DB8
:102AB00090E088169906B0F4B60180E290E00E949A
:102AC00088162A94F4CFF50137FC859137FE819161
:102AD0005F01B60190E00E94881621102A9421E03F
:102AE000821A91088114910471F7E8C0843611F0BC
:102AF000893641F5F80137FE07C060817181828116
:102B000093810C5F1F4F08C060817181072E000CFC
:102B1000880B990B0E5F1F4FF32DFF763F2E97FF0B
:102B200009C090958095709561957F4F8F4F9F4F0D
:102B3000F0683F2E2AE030E0A3010E94C416882EE0
:102B4000861845C0853731F4232D2F7EB22E2AE01A
:102B500030E025C0932D997FB92E8F36C1F018F43F
:102B6000883579F0B5C0803719F0883721F0B0C0CA
:102B7000E92FE061BE2EB4FE0DC0FB2DF460BF2E28
:102B800009C034FE0AC0292F2660B22E06C028E0F4
:102B900030E005C020E130E002C020E132E0F80181
:102BA000B7FE07C060817181828193810C5F1F4FE6
:102BB00006C06081718180E090E00E5F1F4FA3012D
:102BC0000E94C416882E8618FB2DFF773F2E36FEF6
:102BD0000DC0232D2E7FA22E891458F434FE0BC075
:102BE00032FC09C0832D8E7EA82E05C0B82CA32CE4
:102BF00003C0B82C01C0B92CA4FE0FC0FE01E80D23
:102C0000F11D8081803321F49A2D997EA92E09C06F
:102C1000A2FE06C0B394B39404C08A2D867809F04E
:102C2000B394A3FC11C0A0FE06C0B21488F4280C13
:102C3000922C9B180EC0B21460F4B60180E290E0B2
:102C40000E948816B394F7CFB21418F42B1802C060
:102C5000982C212CA4FE10C0B60180E390E00E94C5
:102C60008816A2FE17C0A1FC03C088E790E002C04E
:102C700088E590E0B6010CC08A2D867859F0A1FE57
:102C800002C08BE201C080E2A7FC8DE2B60190E0B9
:102C90000E948816891438F4B60180E390E00E94FF
:102CA00088169A94F7CF8A94F301E80DF11D80817C
:102CB000B60190E00E9488168110F5CF222009F419
:102CC00042CEB60180E290E00E9488162A94F6CFA8
:102CD000F6018681978102C08FEF9FEF2B96E2E18C
:102CE0000C943E17FC010590615070400110D8F71C
:102CF000809590958E0F9F1F0895FC016150704044
:102D000001900110D8F7809590958E0F9F1F089520
:102D10000F931F93CF93DF93FB01238121FD03C00A
:102D20008FEF9FEF2CC022FF16C046815781248170
:102D300035814217530744F4A081B1819D012F5F73
:102D40003F4F318320838C93268137812F5F3F4F04
:102D50003783268314C08B01EC01FB010084F185CD
:102D6000E02D0995892BE1F6D80116968D919C915D
:102D70001797019617969C938E931697CE01DF9125
:102D8000CF911F910F910895FA01AA27283051F190
:102D9000203181F1E8946F936E7F6E5F7F4F8F4F8C
:102DA0009F4FAF4FB1E03ED0B4E03CD0670F781FEB
:102DB000891F9A1FA11D680F791F8A1F911DA11DD0
:102DC0006A0F711D811D911DA11D20D009F4689409
:102DD0003F912AE0269F11243019305D3193DEF6B1
:102DE000CF010895462F4770405D4193B3E00FD067
:102DF000C9F7F6CF462F4F70405D4A3318F0495D52
:102E000031FD4052419302D0A9F7EACFB4E0A69534
:102E10009795879577956795BA95C9F70097610556
:102E2000710508959B01AC010A2E069457954795AC
:102E300037952795BA95C9F7620F731F841F951FA1
:102E4000A01D08952F923F924F925F926F927F92B2
:102E50008F929F92AF92BF92CF92DF92EF92FF92AA
:102E60000F931F93CF93DF93CDB7DEB7CA1BDB0B56
:102E70000FB6F894DEBF0FBECDBF09942A883988FB
:102E800048885F846E847D848C849B84AA84B98402
:102E9000C884DF80EE80FD800C811B81AA81B9810E
:102EA000CE0FD11D0FB6F894DEBF0FBECDBFED0122
:062EB0000895F894FFCF25
:102EB60000000100020003000400050000000100FC
:102EC60002000300040005000000010002000300E8
:102ED60004000500060007000000010002000300D0
:102EE60004000500000001000200030004000500C4
:102EF60000000100020003000400050006000700B0
:102F060005005A000500050000000100020003004C
:102F1600040005000600070000000100020003008F
:102F26000400050006000600000001000200030080
:102F36000400050006000700000000030000000072
:102F46000E10171000004572726F722C206F757488
:102F5600206F662072616E67652000256400506FE1
:102F6600736974696F6E20544F5F55505F504C41C2
:102F7600434500506F736974696F6E20544F5F4408
:102F86004F574E5F504C41434500506F736974690B
:102F96006F6E20544F5F55505F5245464552454E21
:102FA600434500506F736974696F6E20544F5F44D8
:102FB6004F574E5F5245464552454E4345004143A5
:102FC6005400494E4900484F4D4500504F53004F5D
:102FD60072646572204661696C65643A204D6F744F
:102FE6006F72206973206E6F7420656E61626C6506
:102FF60000454E4420696E74657272757074206D5A
:103006006F746F722025642E204D6178205374658D
:103016007073203D2025640A0049435231203D202B
:1030260025640A004F43523141203D2025640A00A1
:103036004F43523142203D2025640A000A557361F0
:1030460067653A003A466D2E6E6E6E202D3E203A2A
:10305600466F72776172645B6D6F746F725D2E730B
:1030660074657073003A426D2E6E6E6E202D3E2092
:103076003A4261636B776172645B6D6F746F725D08
:103086002E7374657073003A526D2E6E6E6E202D1F
:103096003E203A52656C61746976655B6D6F746F3C
:1030A600725D2E70657263656E74616765003A566F
:1030B6006D2E6E6E6E202D3E203A56656C6F6369DE
:1030C60074795B6D6F746F725D2E7265766F6C7559
:1030D60074696F6E735065724D696E757465003AEA
:1030E600416D2E6E6E6E202D3E203A4162736F6CDE
:1030F600757465506F736974696F6E5B6D6F746F0D
:10310600725D2E706F736974696F6E003A53202D6D
:103116003E203A53746F70003A47202D3E203A47BE
:10312600657452656C6174697665506F736974690C
:103136006F6E4D6F746F7273003A67202D3E203AA2
:103146006765744162736F6C757465506F736974EB
:10315600696F6E4D6F746F7273003A44202D3E2076
:103166003A44697361626C654D6F746F7273003AAD
:1031760045202D3E203A456E61626C654D6F746F39
:103186007273003A48202D3E203A486F6D696E678B
:10319600526F7574696E65003A72202D3E203A7240
:1031A60065736574003A68202D3E203A68656C7038
:1031B6000A004E6F7420656E6F75676820617267CE
:1031C600756D656E74732C207573652068656C70FB
:1031D60020636F6D6D616E6420283A68292E200089
:1031E6004D6F76696E6720666F727761726420250F
:1031F60064207374657073206D6F746F722025641C
:10320600200A004D6F76696E67206261636B776195
:103216007264202564207374657073206D6F746FFB
:1032260072202564200A004D6F746F722025642079
:103236007370656564206368616E67656420746F8A
:103246002025642072706D200A004D6F746F722005
:10325600256420746F2072656C2025640A004D6F0A
:10326600746F72202564206162736F6C75746520BB
:10327600706F736974696F6E206368616E676564E9
:1032860020746F202564200A0052656C617469768B
:103296006520706F736974696F6E206F66206D6F3D
:1032A600746F72733A004D6F746F722025643A2002
:1032B600256425250A004162736F6C75746520705C
:1032C6006F736974696F6E206F66206D6F746F72AD
:1032D600733A004D6F746F722025643A2025640A94
:1032E6000053746F7070696E67206D6F746F7273C0
:1032F600004D6F746F72732064697361626C6564EC
:10330600004D6F746F727320656E61626C65640048
:103316005374617274696E6720686F6D696E672099
:10332600726F7574696E65005265736574696E6750
:1033360000436F6D6D616E64206E6F7420666F75ED
:103346006E642C207573652068656C7020636F6DE4
:0C3356006D616E6420283A68292E20006A
:00000001FF
