:100000000C9443000C94B2010C94D9010C9400029E
:100010000C9427020C944E020C9460000C94600027
:100020000C9460000C9460000C9470080C942208EE
:100030000C9497080C9449080C9460000C94600090
:100040000C9460000C9460000C94C30A0C94600043
:100050000C9460000C9460000C9460000C946000A0
:100060000C9460000C946000930697069B06C006F3
:10007000A106A506A906BC06AF06B306B706C006CC
:10008000C406C806CC0611241FBECFEFD8E0DEBFE1
:10009000CDBF15E0A0E0B1E0E8EDF2E202C00590CE
:1000A0000D92AA33B107D9F725E0AAE3B5E001C064
:1000B0001D92A539B207E1F70E94100B0C946A114A
:1000C0000C940000452B21F1843481F42AB1660F91
:1000D000771FFB01E45FFE4F81E090E0008002C0EB
:1000E000880F991F0A94E2F7822B24C08234B9F555
:1000F00024B1660F771FFB01E050FF4F81E090E0D5
:10010000008002C0880F991F0A94E2F7822B26C054
:10011000843491F42AB1660F771FFB01E45FFE4F30
:1001200081E090E0008002C0880F991F0A94E2F7F6
:10013000809582238AB90895823489F424B1660FA8
:10014000771FFB01E050FF4F81E090E0008002C08C
:10015000880F991F0A94E2F78095822384B9089545
:10016000843489F42BB1660F771FFB01EA5CFE4FE4
:1001700081E090E0008002C0880F991F0A94E2F7A6
:10018000822B8BB90895823481F425B1660F771FD5
:10019000FB01E65DFE4F81E090E0008002C0880F29
:1001A000991F0A94E2F7822B85B90895843491F45B
:1001B0002BB1660F771FFB01EA5CFE4F81E090E0F8
:1001C000008002C0880F991F0A94E2F7809582236D
:1001D0008BB90895823489F425B1660F771FFB012E
:1001E000E65DFE4F81E090E0008002C0880F991F1D
:1001F0000A94E2F78095822385B90895843489F4BE
:100200002BB1660F771FFB01EA5CFE4F81E090E0A7
:10021000008002C0880F991F0A94E2F782278BB9E9
:100220000895823481F425B1660F771FFB01E65DE6
:10023000FE4F81E090E0008002C0880F991F0A9471
:10024000E2F7822785B90895843439F489B1660FBD
:10025000771FFB01EA5CFE4F08C0823499F483B13A
:10026000660F771FFB01E65DFE4F21E030E0008066
:1002700002C0220F331F0A94E2F790E028233923AB
:10028000C901089508958230910539F083309105B0
:1002900031F0019739F484E003C088E001C08CE0BC
:1002A00080936900089588309105DCF420916800FE
:1002B0002160209368007093450560934405409148
:1002C0006B00FC01EE0FFF1FEA5BFE4F21E030E008
:1002D000008002C0220F331F0A94E2F7242B2093E0
:1002E0006B009C012850310927303105E0F4209142
:1002F0006800226020936800709343056093420574
:1003000020916C00FC01EE0FFF1FEA5BFE4F81E0C5
:1003100090E0008002C0880F991F0A94E2F7822BB8
:1003200080936C00089580319105DCF02091680085
:1003300024602093680070933D0560933C052091F4
:100340006D00880F991FFC01EA5BFE4F81E090E091
:10035000008002C0880F991F0A94E2F7822B8093D5
:100360006D0008951F920F920FB60F9211242F93D4
:100370003F934F935F936F937F938F939F93AF932D
:10038000BF93EF93FF93E0913E05F0913F050995F0
:10039000FF91EF91BF91AF919F918F917F916F915D
:1003A0005F914F913F912F910F900FBE0F901F9033
:1003B00018951F920F920FB60F9211242F933F930F
:1003C0004F935F936F937F938F939F93AF93BF935D
:1003D000EF93FF93E0914005F09141050995FF915E
:1003E000EF91BF91AF919F918F917F916F915F91AD
:1003F0004F913F912F910F900FBE0F901F90189526
:100400001F920F920FB60F9211242F933F934F9389
:100410005F936F937F938F939F93AF93BF93EF936C
:10042000FF93E0914405F09145050995FF91EF9107
:10043000BF91AF919F918F917F916F915F914F91FC
:100440003F912F910F900FBE0F901F9018951F9204
:100450000F920FB60F9211242F933F934F935F93F8
:100460006F937F938F939F93AF93BF93EF93FF937C
:10047000E0914205F09143050995FF91EF91BF91FD
:10048000AF919F918F917F916F915F914F913F912C
:100490002F910F900FBE0F901F9018951F920F92E3
:1004A0000FB60F9211242F933F934F935F936F9347
:1004B0007F938F939F93AF93BF93EF93FF93E091BD
:1004C0003C05F0913D050995FF91EF91BF91AF91EA
:1004D0009F918F917F916F915F914F913F912F915C
:1004E0000F900FBE0F901F901895009789F46230FF
:1004F000710541F06330710539F06130710569F4BF
:1005000081E003C082E001C083E080936900089528
:10051000019719F4CB010C9443010895CF93DF9315
:10052000EB01009759F4BA0180E090E00E94750257
:10053000E89AD0933F05C0933E050AC0019741F465
:10054000CA010E944301E99AD0934105C093400536
:10055000DF91CF9108952FEF89EF90E021508040F7
:100560009040E1F700C0000062E070E084E40E9487
:100570002401892B19F081E090E002C082E090E034
:100580009093680580936705089541E050E065E029
:1005900070E082E40E94620041E050E064E070E0BC
:1005A00082E40E94620040E050E062E070E082E499
:1005B0000E94620040E050E061E070E082E40E944E
:1005C000620041E050E060E070E082E40E9462007E
:1005D00041E050E067E070E084E40E94620041E0A6
:1005E00050E066E070E084E40E94620041E050E088
:1005F00065E070E084E40E94620041E050E064E065
:1006000070E084E40E94620041E050E063E070E04A
:1006100084E40C946200AF92BF92CF92DF92EF928B
:10062000FF920F931F93CF93DF936B01EC0189E649
:10063000E82E85E0F82E00E010E0AA24A394B12C67
:100640000C151D058CF4BE86AD861A8A198AF70131
:10065000119211927F0169817A8188810E94D6006E
:100660000F5F1F4F6B96ECCFDF91CF911F910F91D2
:10067000FF90EF90DF90CF90BF90AF900895CF9212
:10068000DF92EF92FF920F931F93CF93DF936B0153
:10069000EC0189E6E82E85E0F82E00E010E00C156C
:1006A0001D058CF41E861D861A8A198AF70111927F
:1006B00011927F0169817A8188810E94B0000F5F69
:1006C0001F4F6B96ECCFDF91CF911F910F91FF9051
:1006D000EF90DF90CF90089520E030E026173707A5
:1006E0003CF4FC01128A118A2F5F3F4F4B96F6CFE4
:1006F000089560934605709347058093480590934D
:1007000049050895FC01748B638B0895CF93DF93A3
:10071000FC012585368521303105F1F4EC01728B21
:10072000618B4130510541F4508B4787648175815D
:1007300083810E94B00009C0452BA1F4108A17865E
:100740006481758183810E94D6006F8178858E8156
:10075000DF91CF910C94B00081E991E0DF91CF91CE
:100760000C94850EDF91CF910895CF92DF92EF9296
:10077000FF920F931F93CF93DF937B01EC0100E077
:1007800010E0CC24C394D12C0E151F056CF4DA8E26
:10079000C98E41E050E06FEF7FE7CE010E948603F3
:1007A0000F5F1F4F6B96F0CFDF91CF911F910F918D
:1007B000FF90EF90DF90CF900895FC012185328566
:1007C000621B730B161617061CF441E050E005C0BF
:1007D00071956195710940E050E00C948603CF92C9
:1007E000DF92EF92FF92CF93DF93EC0169857A85D8
:1007F000072E000C880B990B0E94270D6B017C01C2
:100800008B859C85BC01990F880B990B0E94270D45
:100810009B01AC01C701B6010E947D0C20E030E0D5
:1008200048EC52E40E94DC0D20E030E040E05FE361
:100830000E940C0C0E94EF0CCB01DF91CF91FF9036
:10084000EF90DF90CF900895CF92DF92EF92FF92DA
:10085000CF93DF93EC01072E000C880B990B0E94BD
:10086000270D20E030E048EC52E40E947D0C6B0143
:100870007C014B855C85BA01550F880B990B0E9452
:10088000270D9B01AC01C701B6010E94DC0D0E943F
:10089000EF0CCE01DF91CF91FF90EF90DF90CF90E2
:1008A0000C94DD038F929F92AF92BF92CF92DF9212
:1008B000EF920F931F93CF93DF93CDB7DEB7FC0179
:1008C000608352834183238315830483E682D08629
:1008D000C7821286118616861586128A118A8E851F
:1008E0009F85948B838B858A968AA78AB08E128E79
:1008F000118ECF01DF91CF911F910F91EF90DF907B
:10090000CF90BF90AF909F908F9008952BE1AC0156
:10091000249FC001259F900D1124FC01E45BFA4F38
:10092000818D928D019761F56130710569F4108AAE
:10093000178640E050E06FEF7FE7CF010E9486030B
:1009400083EB91E00C94850E672BD1F421893289D9
:100950008FEF9FE7821B930B948783871286118604
:10096000128A118A128E118E9F938F9383EC91E0DD
:100970009F938F930E946F0E0F900F900F900F9088
:1009800008952FEF89EF90E0215080409040E1F7EB
:1009900000C0000061E070E082E40E942401892B25
:1009A00031F061E070E080E090E00E94860462E057
:1009B00070E082E40E942401892B31F060E070E055
:1009C00080E090E00C94860408958F929F92AF92FD
:1009D000BF92CF92DF92EF92FF92CF93DF938091FD
:1009E000590590915A05019709F09BC080915D05CA
:1009F00090915E05181619060CF093C08091690558
:100A000090916A05EC012196D0936A05C09369051F
:100A100060915F0570916005072E000C880B990BA3
:100A20000E94270D20E030E044EB53E40E94DC0DEF
:100A300020E030E040E752E40E947D0C2091610507
:100A40003091620540916305509164050E947D0CD0
:100A50009B01AC0160E070E08AE794E40E947D0CA9
:100A60002091460530914705409148055091490530
:100A70000E947D0C6B017C01BE01DD0F880B990B80
:100A80000E94270D4B015C0120E030E040E05FE375
:100A9000C701B6010E94DC0D9B01AC01C501B40188
:100AA0000E94780C60915305709154051816A4F5B6
:100AB000809152050E94D6008091690590916A0547
:100AC000BC01990F880B990B0E94270DA701960175
:100AD0000E94D70D87FD25C010926A051092690506
:100AE00080915D0590915E05019790935E058093DE
:100AF0005D0520915B0530915C05809155059091D5
:100B000056052130310511F0019701C001969093EF
:100B100056058093550505C0809152050E94B0008E
:100B2000CBCFDF91CF91FF90EF90DF90CF90BF9030
:100B3000AF909F908F900895EFE6F0E080818F7DD9
:100B4000808380818D7F808380818B7F8083808183
:100B50008E7F80830895892B29F080916F008062B9
:100B600080936F00672B29F080916F0082608093E3
:100B70006F00452B29F080916F00846080936F0097
:100B8000232B29F080916F00816080936F0008957E
:100B9000209180002F7320938000209180002F7C73
:100BA000209380008230910549F08330910551F007
:100BB000019769F480918000806407C08091800073
:100BC000806803C080918000806C809380006230D8
:100BD000710551F06330710559F06130710569F4A8
:100BE00080918000806107C080918000806203C096
:100BF000809180008063809380000895CF92DF927F
:100C0000EF92FF9220E030E04AE754E40E947D0C2E
:100C10006B017C0127E337E346E85BE30E94780C35
:100C200018161CF081E090E033C027E337E346E07C
:100C30005DE3C701B6010E94780C18161CF088E02D
:100C400090E026C027E337E346E85EE3C701B6013C
:100C50000E94780C18161CF080E490E019C027E37D
:100C600037E346E85FE3C701B6010E94780C181627
:100C70001CF080E091E00CC027E337E346E850E445
:100C8000C701B6010E94780C181634F080E094E099
:100C900090933B0580933A0580918100887F8093F3
:100CA000810080913A0590913B0580349105C9F00F
:100CB0004CF48130910589F00897E1F4809181002E
:100CC000826016C0811521E0920779F08115944069
:100CD00089F48091810085600BC0809181008160E2
:100CE00007C080918100836003C08091810084608F
:100CF00080938100FF90EF90DF90CF900895209136
:100D000080002C7F2093800020918100277E2093FB
:100D1000810001978F30910508F048C08C5C9F4F8F
:100D2000FC010C94050C80918000816007C08091CB
:100D30008000826003C08091800083608093800087
:100D4000089580918000816007C08091800082605A
:100D500003C08091800083608093800011C08091E7
:100D60008000816007C080918000826003C0809114
:100D7000800083608093800080918100806114C036
:100D800080918100886010C080918000816007C0E0
:100D900080918000826003C0809180008360809396
:100DA0008000809181008861809381000895CF92B6
:100DB000DF92EF92FF92CF93DF93EA0120E030E0E1
:100DC00040E05FE30E94DC0D6B017C0184E090E079
:100DD0000E947F06C701B6010E94FE05EFE6F0E023
:100DE00080818260808320E030E04AE754E4C701DC
:100DF000B6010E947D0C6B017C0120913A05309177
:100E00003B05032E000C440B550B60E074E284EFAD
:100E100090E00E94C40BCA01B9010E94250D9B01FC
:100E2000AC01C701B6010E94DC0D20E030E040E8D3
:100E30005FE30E940C0C0E94EF0C7093890060939A
:100E40008800D0936E05C0936D05DF91CF91FF9020
:100E5000EF90DF90CF9008954F925F926F927F92C4
:100E60008F929F92AF92BF92CF92DF92EF92FF92BA
:100E70000F931F93CF93DF9300D000D0CDB7DEB791
:100E80002B013C0149015A01E982FA820B831C8340
:100E90008EE090E00E947F06C301B2010E94FE0531
:100EA00020E030E04AE754E4C301B2010E947D0C27
:100EB0002B013C0120913A0530913B05032E000C9B
:100EC000440B550BC12C84E2D82E84EFE82EF12C74
:100ED000C701B6010E94C40BCA01B9010E94250DC9
:100EE0009B01AC01C301B2010E94DC0D20E030E0A7
:100EF00040E85FE30E940C0C0E94EF0C96E8692E1C
:100F0000712CF3017183608320E030E04AE754E400
:100F1000C501B4010E947D0C4B015C0120913A0592
:100F200030913B05032E000C440B550BC701B60155
:100F30000E94C40BCA01B9010E94250D9B01AC019E
:100F4000C501B4010E94DC0D20E030E040E85FE321
:100F50000E940C0C0E94EF0C08E810E0F80171836D
:100F6000608320E030E04AE754E469817A818B8134
:100F70009C810E947D0C4B015C0120913A053091CF
:100F80003B05032E000C440B550BC701B6010E9414
:100F9000C40BCA01B9010E94250D9B01AC01C5011A
:100FA000B4010E94DC0D20E030E040E85FE30E94E5
:100FB0000C0C0E94EF0C2AE8E22EF12CF701718351
:100FC000608363E070E083E090E00E94C805F30175
:100FD000808191819F938F9382EE91E09F938F9375
:100FE0000E946F0EF801808191819F938F938DEE07
:100FF00091E09F938F930E946F0EF7018081918102
:101000009F938F9389EF91E09F938F930E946F0E30
:101010000FB6F894DEBF0FBECDBF0F900F900F90AC
:101020000F90DF91CF911F910F91FF90EF90DF9084
:10103000CF90BF90AF909F908F907F906F905F9078
:101040004F9008951F920F920FB60F9211242F9375
:101050003F934F935F936F937F938F939F93AF9340
:10106000BF93EF93FF93E0916D05F0916E050995A5
:10107000FF91EF91BF91AF919F918F917F916F9170
:101080005F914F913F912F910F900FBE0F901F9046
:1010900018951F920F920FB60F9211242F933F9322
:1010A0004F935F936F937F938F939F93AF93BF9370
:1010B000EF93FF93E0916D05F0916E050995FF9117
:1010C000EF91BF91AF919F918F917F916F915F91C0
:1010D0004F913F912F910F900FBE0F901F90189539
:1010E0001F920F920FB60F9211242F933F934F939D
:1010F0005F936F937F938F939F93AF93BF93EF9380
:10110000FF93E0916D05F0916E050995FF91EF91C8
:10111000BF91AF919F918F917F916F915F914F910F
:101120003F912F910F900FBE0F901F9018951F9217
:101130000F920FB60F9211242F933F934F935F930B
:101140006F937F938F939F93AF93BF93EF93FF938F
:10115000E0916D05F0916E050995FF91EF91BF91BA
:10116000AF919F918F917F916F915F914F913F913F
:101170002F910F900FBE0F901F90189585E092E071
:101180000E94850E8DE092E00E94850E8EE292E034
:101190000E94850E80E592E00E94850E87E792E02E
:1011A0000E94850E88EA92E00E94850E85ED92E00D
:1011B0000E94850E81EE92E00E94850E82E093E00F
:1011C0000E94850E83E293E00E94850E88E393E0FF
:1011D0000E94850E8CE493E00E94850E81E693E0E8
:1011E0000E94850E8EE693E00C94850ECF92DF92DE
:1011F000EF92FF920F931F93CF93DF936C017B01CC
:10120000633071055CF0C60104960E94490E8C01A2
:10121000F601C2810C2E000CDD0BE097F601218156
:10122000283409F44CC1FCF4243409F424C13CF4FE
:10123000213409F4E5C0223409F469C05FC12634C1
:1012400009F445C00CF429C187E694E00E94850E9C
:101250008CE495E00E94EF039F938F931F921F925F
:1012600084E894E0F5C0263509F47AC0C4F4223548
:1012700009F49EC0233509F041C18FEB94E00E9430
:10128000850E61E070E08CE495E0DF91CF911F91D5
:101290000F91FF90EF90DF90CF900C946C03283665
:1012A00009F422C1223709F41CC1273609F026C1EE
:1012B00084E994E00E94850E809156058F93809179
:1012C00055058F931F921F9281EB94E0C1C0F5E00A
:1012D000EF16F1041CF48BE793E012C1DF93CF9378
:1012E0001F930F9389EA93E09F938F930E946F0E51
:1012F0000F900F900F900F900F900F902BE12C9F5D
:10130000C0012D9F900D112441E050E01CC0F5E07C
:10131000EF16F10404F3DF93CF931F930F938CEC3C
:1013200093E09F938F930E946F0E0F900F900F90FA
:101330000F900F900F902BE12C9FC0012D9F900DCF
:10134000112440E050E0B801845B9A4FDF91CF91C7
:101350001F910F91FF90EF90DF90CF900C94860338
:10136000F5E0EF16F1040CF4B6CF1F930F93DF9363
:10137000CF9380EF93E09F938F930E946F0E0F9017
:101380000F900F900F900F900F902BE12C9FC001AA
:101390002D9F900D1124B801845B9A4FDF91CF915E
:1013A0001F910F91FF90EF90DF90CF900C948203EC
:1013B000F5E0EF16F1040CF48ECF1F930F93DF933B
:1013C000CF9383E194E09F938F930E946F0E0F90D1
:1013D0000F900F900F900F900F902BE12C9FC0015A
:1013E0002D9F900D1124B801845B9A4FDF91CF910E
:1013F0001F910F91FF90EF90DF90CF900C942404F9
:10140000F5E0EF16F1040CF466CF1F930F93DF9312
:10141000CF938CE394E09F938F930E946F0E0F9075
:101420000F900F900F900F900F902BE12C9FC00109
:101430002D9F900D1124B801845B9A4FDF91CF91BD
:101440001F910F91FF90EF90DF90CF900C94DD03F0
:101450009F938F930E946F0E0F900F900F900F909D
:101460000F900F90DF91CF911F910F91FF90EF9010
:10147000DF90CF9008958FEC94E00E94850E61E09C
:1014800070E08CE495E0DF91CF911F910F91FF9078
:10149000EF90DF90CF900C943F038FED94E00E948B
:1014A000850E61E070E08CE495E0DF91CF911F91B3
:1014B0000F91FF90EF90DF90CF900C940B038EEE86
:1014C00094E00E94850E61E070E08CE495E0DF918D
:1014D000CF911F910F91FF90EF90DF90CF900C94E0
:1014E000B50386E095E00CC0DF91CF911F910F917D
:1014F000FF90EF90DF90CF900C94BE088FE095E0C6
:10150000DF91CF911F910F91FF90EF90DF90CF90DF
:101510000C94850E0F931F93CF93DF938A01E901FB
:1015200020E130E040E050E00E94E60BCA01B90142
:10153000980140E050E00E94E60B215031093093C1
:10154000C5002093C40088E98093C1008EE0809399
:10155000C200D0937005C0936F05DF91CF911F91AA
:101560000F9108959091C00095FFFCCF8093C60025
:1015700080E090E008958091C00087FFFCCF8091CB
:10158000C60090E008951F920F920FB60F9211249B
:101590002F933F934F935F936F937F938F939F937B
:1015A000AF93BF93EF93FF9386E791E00E94BB0A4E
:1015B0008D3071F08A3331F0E09169058A30B9F4E9
:1015C0006E2F08C091E0909369058093710517C054
:1015D0006091690570E0FB01EF58FA4F1082E091CD
:1015E0006F05F091700581E795E0099508C091E0DD
:1015F0009E0F90936905F0E0EF58FA4F8083FF91BA
:10160000EF91BF91AF919F918F917F916F915F917A
:101610004F913F912F910F900FBE0F901F901895F3
:10162000CF93DF93CDB7DEB76B970FB6F894DEBFDD
:101630000FBECDBF109268051092670586E791E056
:101640009093900580938F059093920580939105D8
:1016500026EF38E040E051EE60E074E284EF90E085
:101660000E948A0A41E050E06BEA72E080E090E07C
:101670000E948E020E94C5021F928AE08F9386E626
:10168000882E982C86EEA82E8FE3B82E95E0C92ED2
:10169000D12C24E4E22E04E010E024E443E050E006
:1016A00064E4CE0101960E9452048BE1FE01319662
:1016B000ACE4B5E001900D928A95E1F761EC74E03D
:1016C00081E090E00E94530161EC74E082E090E0E0
:1016D0000E945301789484E891E00E94850E0F9057
:1016E0000F9002E010E033E0E32EF12C80916705CB
:1016F0009091680581309105E9F088F0823091057C
:1017000061F183309105B1F72AEA36EE86E991E07E
:101710002150304080409040D9F70000E7CF65E08D
:1017200070E082E40E94B00064E070E082E40E9415
:10173000D600DCCF88E891E00E94850E65E070E07D
:1017400082E40E94D60064E070E082E40E94B0006F
:101750001093680500936705C9CF60E070E080E8EA
:101760009FE30E94790345EE54E060E070E080E87A
:101770009FE30E94D7068CE891E00E94850EF092CC
:101780006805E0926705B2CFA1E21A2EAA1BBB1B27
:10179000FD010DC0AA1FBB1FEE1FFF1FA217B3073D
:1017A000E407F50720F0A21BB30BE40BF50B661F53
:1017B000771F881F991F1A9469F760957095809517
:1017C00090959B01AC01BD01CF010895052E97FBBB
:1017D0001EF400940E94FD0B57FD07D00E94C40B1D
:1017E00007FC03D04EF40C94FD0B509540953095BA
:1017F00021953F4F4F4F5F4F08959095809570957D
:1018000061957F4F8F4F9F4F0895EE0FFF1F0590FB
:10181000F491E02D09945058BB27AA270E94230C6D
:101820000C949D0D0E948F0D38F00E94960D20F0B3
:1018300039F49F3F19F426F40C948C0D0EF4E095C6
:10184000E7FB0C94860DE92F0E94AE0D58F3BA17F2
:10185000620773078407950720F079F4A6F50C94C6
:10186000D00D0EF4E0950B2EBA2FA02D0B01B9016F
:1018700090010C01CA01A0011124FF27591B99F006
:10188000593F50F4503E68F11A16F040A22F232F12
:10189000342F4427585FF3CF469537952795A79562
:1018A000F0405395C9F77EF41F16BA0B620B730B09
:1018B000840BBAF09150A1F0FF0FBB1F661F771F7A
:1018C000881FC2F70EC0BA0F621F731F841F48F42F
:1018D000879577956795B795F7959E3F08F0B0CFB8
:1018E0009395880F08F09927EE0F9795879508959F
:1018F0000E94620D08F481E008950E94910C0C94FE
:101900009D0D0E94960D58F00E948F0D40F029F415
:101910005F3F29F00C94860D51110C94D10D0C945D
:101920008C0D0E94AE0D68F39923B1F3552391F30A
:10193000951B550BBB27AA2762177307840738F03E
:101940009F5F5F4F220F331F441FAA1FA9F335D09B
:101950000E2E3AF0E0E832D091505040E695001C4F
:10196000CAF72BD0FE2F29D0660F771F881FBB1F09
:10197000261737074807AB07B0E809F0BB0B802DE7
:10198000BF01FF2793585F4F3AF09E3F510578F013
:101990000C94860D0C94D10D5F3FE4F3983ED4F384
:1019A000869577956795B795F7959F5FC9F7880FE7
:1019B000911D9695879597F90895E1E0660F771F39
:1019C000881FBB1F621773078407BA0720F0621BCA
:1019D000730B840BBA0BEE1F88F7E09508950E94F5
:1019E000F60C6894B1110C94D10D08950E94B60DB7
:1019F00088F09F5798F0B92F9927B751B0F0E1F0D0
:101A0000660F771F881F991F1AF0BA95C9F714C07F
:101A1000B13091F00E94D00DB1E008950C94D00D3A
:101A2000672F782F8827B85F39F0B93FCCF38695B8
:101A300077956795B395D9F73EF490958095709515
:101A400061957F4F8F4F9F4F0895E89409C097FB92
:101A50003EF490958095709561957F4F8F4F9F4F85
:101A60009923A9F0F92F96E9BB279395F6958795C9
:101A700077956795B795F111F8CFFAF4BB0F11F48C
:101A800060FF1BC06F5F7F4F8F4F9F4F16C0882333
:101A900011F096E911C0772321F09EE8872F762F69
:101AA00005C0662371F096E8862F70E060E02AF0AA
:101AB0009A95660F771F881FDAF7880F9695879596
:101AC00097F90895990F0008550FAA0BE0E8FEEF6B
:101AD00016161706E807F907C0F012161306E407F2
:101AE000F50798F0621B730B840B950B39F40A26EB
:101AF00061F0232B242B252B21F408950A2609F4C9
:101B0000A140A6958FEF811D811D089597F99F67CC
:101B100080E870E060E008959FEF80EC0895002475
:101B20000A941616170618060906089500240A9442
:101B300012161306140605060895092E0394000CC8
:101B400011F4882352F0BB0F40F4BF2B11F460FF57
:101B500004C06F5F7F4F8F4F9F4F089557FD905880
:101B6000440F551F59F05F3F71F04795880F97FB61
:101B7000991F61F09F3F79F087950895121613061B
:101B80001406551FF2CF4695F1DF08C0161617064A
:101B90001806991FF1CF869571056105089408957F
:101BA000E894BB2766277727CB0197F908950E9411
:101BB000620D08F48FEF08950E94EF0D0C949D0DB7
:101BC0000E948F0D38F00E94960D20F0952311F0A1
:101BD0000C94860D0C948C0D11240C94D10D0E9444
:101BE000AE0D70F3959FC1F3950F50E0551F629FA6
:101BF000F001729FBB27F00DB11D639FAA27F00D66
:101C0000B11DAA1F649F6627B00DA11D661F829F8C
:101C10002227B00DA11D621F739FB00DA11D621F71
:101C2000839FA00D611D221F749F3327A00D611D8E
:101C3000231F849F600D211D822F762F6A2F112470
:101C40009F5750409AF0F1F088234AF0EE0FFF1FA3
:101C5000BB1F661F771F881F91505040A9F79E3FFA
:101C6000510580F00C94860D0C94D10D5F3FE4F388
:101C7000983ED4F3869577956795B795F795E79550
:101C80009F5FC1F7FE2B880F911D9695879597F959
:101C90000895FC0188279927E89421912032E9F3DF
:101CA000293010F02E30C8F32B3241F02D3239F4A8
:101CB000689404C00E94670E820F911D21912053E9
:101CC0002A30C0F31EF4909581959F4F08957AE0D5
:101CD000979F902D879F802D910D11240895A0E04E
:101CE000B0E0E5E7FEE00C944311AE014B5F5F4FBF
:101CF000FA0161917191AF018091910590919205E6
:101D00000E94B50EE2E00C945F110F931F93CF93E6
:101D1000DF93E0919105F0919205238121FF1BC093
:101D20008C01D0E0C0E0F80181918F0160919105B4
:101D300070919205DB011896ED91FC91199788231B
:101D400031F00995892B79F3DFEFCFEFECCF8AE003
:101D50000995892B19F08FEF9FEF02C08D2F9C2FD3
:101D6000DF91CF911F910F910895ACE0B0E0EBEBC4
:101D7000FEE00C9433117C016B018A01FC01178297
:101D80001682838181FFBDC1CE0101964C01F7010E
:101D90009381F60193FD859193FF81916F018823D3
:101DA00009F4ABC1853239F493FD859193FF81919C
:101DB0006F01853229F4B70190E00E949D10E7CFB2
:101DC000512C312C20E02032A0F48B3269F030F419
:101DD000803259F0833269F420612CC08D3239F0A1
:101DE000803339F4216026C02260246023C028603B
:101DF00021C027FD27C030ED380F3A3078F426FF98
:101E000006C0FAE05F9E300D1124532E13C08AE005
:101E1000389E300D1124332E20620CC08E3221F4F6
:101E200026FD6BC1206406C08C3611F4206802C008
:101E3000883641F4F60193FD859193FF81916F01FE
:101E40008111C1CF982F9F7D9554933028F40C5F5A
:101E50001F4FFFE3F9830DC0833631F0833771F0F4
:101E6000833509F05BC022C0F801808189830E5F51
:101E70001F4F44244394512C540115C03801F2E003
:101E80006F0E711CF801A080B18026FF03C0652D84
:101E900070E002C06FEF7FEFC5012C870E949210A7
:101EA0002C0183012C852F77222E17C03801F2E0F8
:101EB0006F0E711CF801A080B18026FF03C0652D54
:101EC00070E002C06FEF7FEFC5012C870E94871082
:101ED0002C012C852068222E830123FC1BC0832D1E
:101EE00090E048165906B0F4B70180E290E00E94F5
:101EF0009D103A94F4CFF50127FC859127FE81913E
:101F00005F01B70190E00E949D1031103A94F1E01A
:101F10004F1A51084114510471F7E5C0843611F08D
:101F2000893639F5F80127FF07C060817181828108
:101F300093810C5F1F4F08C060817181072E000CD8
:101F4000880B990B0E5F1F4F2F76722E97FF09C0DB
:101F500090958095709561957F4F8F4F9F4F20682A
:101F6000722E2AE030E0A4010E94D510A82EA818F5
:101F700044C0853729F42F7EB22E2AE030E025C0F8
:101F8000F22FF97FBF2E8F36C1F018F4883579F023
:101F9000B4C0803719F0883721F0AFC02F2F2061EF
:101FA000B22EB4FE0DC08B2D8460B82E09C024FF64
:101FB0000AC09F2F9660B92E06C028E030E005C009
:101FC00020E130E002C020E132E0F801B7FE07C0B6
:101FD00060817181828193810C5F1F4F06C0608197
:101FE000718180E090E00E5F1F4FA4010E94D51028
:101FF000A82EA818FB2DFF777F2E76FE0BC0372D5D
:102000003E7FA51450F474FE0AC072FC08C0372D40
:102010003E7E05C0BA2C372D03C0BA2C01C0B52CAA
:1020200034FF0DC0FE01EA0DF11D8081803311F4F3
:10203000397E09C032FF06C0B394B39404C0832F25
:10204000867809F0B39433FD13C030FF06C05A2CD4
:10205000B31418F4530C5B18B32CB31468F4B70121
:1020600080E290E03C870E949D10B3943C85F5CFC0
:10207000B31410F43B1801C0312C34FF12C0B70167
:1020800080E390E03C870E949D103C8532FF17C0A2
:1020900031FD03C088E790E002C088E590E0B70119
:1020A0000CC0832F867859F031FF02C08BE201C04B
:1020B00080E237FD8DE2B70190E00E949D10A514EB
:1020C00038F4B70180E390E00E949D105A94F7CF56
:1020D000AA94F401EA0DF11D8081B70190E00E94FD
:1020E0009D10A110F5CF332009F451CEB70180E245
:1020F00090E00E949D103A94F6CFF7018681978177
:1021000002C08FEF9FEF2C96E2E10C944F11FC017F
:102110000590615070400110D8F7809590958E0F12
:102120009F1F0895FC016150704001900110D8F785
:10213000809590958E0F9F1F08950F931F93CF93B7
:10214000DF93FB01238121FD03C08FEF9FEF28C0A8
:1021500022FF16C0468157812481358142175307DB
:1021600044F4A081B1819D012F5F3F4F31832083D3
:102170008C93268137812F5F3F4F3783268310C092
:10218000EB01092F182F0084F185E02D0995892B8B
:10219000E1F68E819F8101969F838E83812F902F00
:1021A000DF91CF911F910F910895FA01AA2728304E
:1021B00051F1203181F1E8946F936E7F6E5F7F4F14
:1021C0008F4F9F4FAF4FB1E03ED0B4E03CD0670F90
:1021D000781F891F9A1FA11D680F791F8A1F911DE3
:1021E000A11D6A0F711D811D911DA11D20D009F433
:1021F00068943F912AE0269F11243019305D319375
:10220000DEF6CF010895462F4770405D4193B3E05D
:102210000FD0C9F7F6CF462F4F70405D4A3318F004
:10222000495D31FD4052419302D0A9F7EACFB4E0B5
:10223000A6959795879577956795BA95C9F700976D
:102240006105710508959B01AC010A2E069457950E
:10225000479537952795BA95C9F7620F731F841F65
:10226000951FA01D08952F923F924F925F926F92FB
:102270007F928F929F92AF92BF92CF92DF92EF9216
:10228000FF920F931F93CF93DF93CDB7DEB7CA1B97
:10229000DB0B0FB6F894DEBF0FBECDBF09942A88C2
:1022A000398848885F846E847D848C849B84AA846A
:1022B000B984C884DF80EE80FD800C811B81AA81F7
:1022C000B981CE0FD11D0FB6F894DEBF0FBECDBFC2
:0822D000ED010895F894FFCF21
:1022D80000000100020003000400050000000100E6
:1022E80002000300040005000500060007000000C6
:1022F80001000200030004000500000001000200C4
:1023080003000400050000000100020003000400AF
:102318000500060007000000010002000300040099
:102328000500060007000000010002000300040089
:10233800050006000600000001000200030004007A
:102348000500060007000000000300000000B20AB4
:10235800BB0A0000494E490041435400484F4D45CF
:10236800004F72646572204661696C65643A204D5D
:102378006F746F72206973206E6F7420656E61626E
:102388006C6500535441525420696E7465727275BD
:10239800707400454E4420696E746572727570746D
:1023A8002E204D6178205374657073203D2025647C
:1023B8000A0049435231203D2025640A004F435208
:1023C8003141203D2025640A004F43523142203DCF
:1023D8002025640A000A55736167653A003A466D1C
:1023E8002E6E6E6E202D3E203A466F7277617264B3
:1023F8005B6D6F746F725D2E7374657073003A4213
:102408006D2E6E6E6E202D3E203A4261636B7761B1
:1024180072645B6D6F746F725D2E73746570730098
:102428003A526D2E6E6E6E202D3E203A52656C61CA
:10243800746976655B6D6F746F725D2E706572631B
:10244800656E74616765003A566D2E6E6E6E202D4E
:102458003E203A56656C6F636974795B6D6F746F73
:10246800725D2E7265766F6C7574696F6E735065E8
:10247800724D696E757465003A416D2E6E6E6E20F0
:102488002D3E203A4162736F6C757465506F7369A5
:1024980074696F6E5B6D6F746F725D2E706F7369A8
:1024A80074696F6E003A53202D3E203A53746F7052
:1024B800003A47202D3E203A47657452656C617496
:1024C800697665506F736974696F6E4D6F746F725A
:1024D80073003A67202D3E203A6765744162736F36
:1024E8006C757465506F736974696F6E4D6F746F36
:1024F8007273003A44202D3E203A44697361626C3D
:10250800654D6F746F7273003A45202D3E203A4531
:102518006E61626C654D6F746F7273003A48202D5E
:102528003E203A486F6D696E67526F7574696E65C3
:10253800003A72202D3E203A7265736574003A683D
:10254800202D3E203A68656C700A004E6F74206535
:102558006E6F75676820617267756D656E74732C30
:10256800207573652068656C7020636F6D6D616E92
:102578006420283A68292E20004D6F76696E6720FE
:10258800666F727761726420256420737465707356
:10259800206D6F746F72202564200A004D6F766974
:1025A8006E67206261636B776172642025642073B3
:1025B80074657073206D6F746F72202564200A0033
:1025C8004D6F746F72202564207370656564206395
:1025D80068616E67656420746F2025642072706D71
:1025E800200A004D6F76696E67206D6F746F7220D8
:1025F800256420746F2072656C617469766520703B
:102608006F736974696F6E2025640A004D6F746F6B
:1026180072202564206162736F6C75746520706F19
:10262800736974696F6E206368616E67656420748E
:102638006F202564200A0052656C617469766520F4
:10264800706F736974696F6E206F66206D6F746F39
:1026580072733A004D6F746F722025643A202564B6
:1026680025250A004162736F6C75746520706F735D
:102678006974696F6E206F66206D6F746F72733A3C
:10268800004D6F746F722025643A2025640A005348
:10269800746F7070696E67206D6F746F7273004D20
:1026A8006F746F72732064697361626C6564004D46
:1026B8006F746F727320656E61626C656400537429
:1026C800617274696E6720686F6D696E6720726FDA
:1026D8007574696E65005265736574696E67004349
:1026E8006F6D6D616E64206E6F7420666F756E64B9
:1026F8002C207573652068656C7020636F6D6D6143
:0A2708006E6420283A68292E200094
:00000001FF
