:100000000C945B000C944A060C9471060C949806B0
:100010000C94BF060C94E6060C9478000C947800BF
:100020000C9478000C9478000C94960D0C94480D68
:100030000C94BD0D0C946F0D0C9478000C9478000A
:100040000C94210D0C9478000C9418100C947800EA
:100050000C9478000C9478000C9478000C94780040
:100060000C9499050C947800F10422053E053E0598
:100070002B053E053E053E053E053E053E053E057B
:100080003E052D053E053E053C053E053E053E056B
:100090003E05D604DF04E804920B960B9A0BBF0BC7
:1000A000A00BA40BA80BBB0BAE0BB20BB60BBF0B7C
:1000B000C30BC70BCB0B11241FBECFEFD8E0DEBFA5
:1000C000CDBF15E0A0E0B1E0EEE8FEE202C0059091
:1000D0000D92A23CB107D9F726E0A2ECB5E001C031
:1000E0001D92A238B207E1F70E9465100C944517E3
:1000F0000C940000452BB9F1843481F42AB1660FC9
:10010000771FFB01E85EFE4F81E090E0008002C0B7
:10011000880F991F0A94E2F7822B37C0823481F44A
:1001200024B1660F771FFB01E45FFE4F81E090E092
:10013000008002C0880F991F0A94E2F7822B39C011
:10014000833409F04BC027B1660F771FFB01E050E5
:10015000FF4F81E090E0008002C0880F991F0A9451
:10016000E2F7822B3AC0843491F42AB1660F771FEC
:10017000FB01E85EFE4F81E090E0008002C0880F46
:10018000991F0A94E2F7809582238AB908958234F0
:1001900091F424B1660F771FFB01E45FFE4F81E00D
:1001A00090E0008002C0880F991F0A94E2F78095C2
:1001B000822384B90895833489F427B1660F771FA9
:1001C000FB01E050FF4F81E090E0008002C0880F0B
:1001D000991F0A94E2F78095822387B908958434A1
:1001E00089F42BB1660F771FFB01E05CFE4F81E0C5
:1001F00090E0008002C0880F991F0A94E2F7822BDA
:100200008BB90895823489F425B1660F771FFB01FD
:10021000EC5CFE4F81E090E0008002C0880F991FE7
:100220000A94E2F7822B85B90895833481F428B1CA
:10023000660F771FFB01E85DFE4F81E090E00080D4
:1002400002C0880F991F0A94E2F7822B88B908959B
:10025000843491F42BB1660F771FFB01E05CFE4FF5
:1002600081E090E0008002C0880F991F0A94E2F7B5
:10027000809582238BB90895823491F425B1660F5D
:10028000771FFB01EC5CFE4F81E090E0008002C034
:10029000880F991F0A94E2F78095822385B9089503
:1002A000833489F428B1660F771FFB01E85DFE4FA8
:1002B00081E090E0008002C0880F991F0A94E2F765
:1002C0008095822388B90895843489F42BB1660F10
:1002D000771FFB01E05CFE4F81E090E0008002C0F0
:1002E000880F991F0A94E2F782278BB90895823408
:1002F00089F425B1660F771FFB01EC5CFE4F81E0AE
:1003000090E0008002C0880F991F0A94E2F78227CC
:1003100085B90895833481F428B1660F771FFB01F6
:10032000E85DFE4F81E090E0008002C0880F991FD9
:100330000A94E2F7822788B90895843439F489B1A0
:10034000660F771FFB01E05CFE4F11C0823439F469
:1003500083B1660F771FFB01EC5CFE4F08C083344E
:1003600099F486B1660F771FFB01E85DFE4F21E02F
:1003700030E0008002C0220F331F0A94E2F790E0C1
:1003800028233923C901089508958EE48093BB0082
:1003900008958F929F92AF92BF92CF92DF92EF9289
:1003A000FF920F931F93CF93DF93CDB7DEB7CDB6F8
:1003B000DEB6893531F08A3541F452E0A52EB12CF4
:1003C00006C0AA24A394B12C02C0A12CB12C4501D3
:1003D000880C991CF401E953FA4F808191818A308D
:1003E00091050CF47CC08436910559F022E0E22E90
:1003F000F12C8536910544F086E991E00E943D1488
:1004000003C093E0E92EF12C8DB79EB78E199F099A
:100410000FB6F8949EBF0FBE8DBF0DB71EB70F5F0E
:100420001F4FF401E953FA4F81818F9380818F939D
:100430008BEA91E09F938F931F930F930E946D140B
:10044000B7016C5F7F4F0F900F900F900F900F9040
:100450000F90ADB7BEB7A61BB70B0FB6F894BEBFD3
:100460000FBEADBFEDB7FEB731968AE311968C9300
:1004700082E58183A114B10411F480E306C0AA943B
:10048000AB2811F481E301C082E382838EE283838F
:10049000CF010496E00EF11E0E151F0539F0D801AC
:1004A0002D918D01DC012D93CD01F6CF8DB79EB737
:1004B000861B970B0FB6F8949EBF0FBE8DBF01969B
:1004C0009C018F01D8014D918D01D9014D939D0162
:1004D000A8014E1B5F0B46175707A4F304C0EE2478
:1004E000E394F12C91CF0E941C0E0FB6F894DEBE5F
:1004F0000FBECDBEDF91CF911F910F91FF90EF9076
:10050000DF90CF90BF90AF909F908F90089588E537
:100510000E94C90189E50E94C9018AE50C94C901BC
:100520004F925F926F927F928F929F92AF92BF9203
:10053000CF92DF92EF92FF920F931F93CF93DF93AF
:1005400000D000D000D0CDB7DEB787ECC82E85E054
:10055000D82E93EEA92E95E0B92E8E010F5F1F4F76
:1005600048013501F601E190F1906F01C3010E944D
:100570000B099701281B390B37FF03C031952195D3
:100580003109F401219331934F01FBE16F0E711C8E
:100590008DECC81685E0D80629F729813A812831E3
:1005A000ECEF3E0714F428E13CEF8B819C8169015C
:1005B000281739070CF46C018D819E81C816D90665
:1005C0000CF46C014E01F7E08F0E911C0D2C000C09
:1005D000EE08FF08F801619171918F01072E000C60
:1005E000880B990B0E94DF122B013C01C701B60159
:1005F0000E94DF129B01AC01C301B2010E943512BF
:1006000020E030E040E251E40E94941320E030E02A
:1006100040E05FE30E94C4110E94A71261157105BA
:1006200011F461E070E0C5010E948A08FBE1AF0EA1
:10063000B11C0815190571F626960FB6F894DEBFA1
:100640000FBECDBFDF91CF911F910F91FF90EF9023
:10065000DF90CF90BF90AF909F908F907F906F90E2
:100660005F904F90089580914A0690914B0681309B
:10067000910509F05FC02091CD053091CE05232B67
:10068000D9F49093CE058093CD058091520190913D
:1006900053019093CC058093CB050E94900288E58E
:1006A0000E94C90189E50E94C9018AE50E94C90129
:1006B0008EEA91E00E943D148091F4059091F50539
:1006C0000597C4F580910F0690911006059794F553
:1006D00080912A0690912B06059764F58091DB05A1
:1006E0009091DC05892B81F481E090E09093DC050A
:1006F0008093DB0582E090E090934B0680934A065E
:100700001092CE051092CD058091DB059091DC050D
:10071000029781F481E090E09093DC058093DB0503
:1007200083E090E090934B0680934A061092CE05AA
:100730001092CD0580914A0690914B06029709F0E0
:1007400045C08091CD059091CE05892BE9F481E0DB
:1007500090E09093CE058093CD0588E50E94C90175
:1007600089E50E94C90180915001909151019093B7
:10077000CC058093CB050E9490028AE50E94C901B6
:1007800083EC91E00E943D148091F4059091F50571
:100790000597E4F480910F06909110060597B4F444
:1007A00080912A0690912B06059784F482E090E0D0
:1007B0009093DC058093DB0581E090E090934B06FD
:1007C00080934A061092CE051092CD0580914A067C
:1007D00090914B06039709F073C08091CD059091DD
:1007E000CE05892B69F581E090E09093CE0580934A
:1007F000CD0580915601909157019093C805809343
:10080000C70580915401909155019093CA0580933A
:10081000C90580915201909153019093CC0580932A
:10082000CB050E94900288E50E94C90189E50E94DB
:10083000C9018AE50E94C9018AED91E00E943D1438
:100840008091F4059091F5050597D4F580910F06F8
:10085000909110060597A4F580912A0690912B0699
:10086000059774F58091DB059091DC05019781F483
:1008700083E090E09093DC058093DB0584E090E0DA
:1008800090934B0680934A061092CE051092CD05A8
:100890008091DB059091DC05049791F483E090E072
:1008A0009093DC058093DB0510924B0610924A066C
:1008B0001092D0051092CF051092CE051092CD0562
:1008C00080914A0690914B06049709F055C080919B
:1008D000CD059091CE05892B69F581E090E090934C
:1008E000CE058093CD05809156019091570190934C
:1008F000C8058093C705809154019091550190934C
:10090000CA058093C905809150019091510190933F
:10091000CC058093CB050E94900288E50E94C90116
:1009200089E50E94C9018AE50E94C90183EF91E02F
:100930000E943D148091F4059091F5050597E4F42B
:1009400080910F06909110060597B4F480912A06C5
:1009500090912B06059784F484E090E09093DC0559
:100960008093DB0583E090E090934B0680934A06EA
:100970001092CE051092CD0508958091CF059091EB
:10098000D005892B09F07AC0E09134068E2FEE0F46
:10099000990BAA0BBB0BFC01E354F109E831F105FB
:1009A00008F06CC0EC5CFF4F0C94BD1185E396E041
:1009B0000E9401149093C8058093C705089585E3AC
:1009C00096E00E9401149093CA058093C90508958A
:1009D00085E396E00E9401149093CC058093CB05AB
:1009E000089580913506843709F048C08091360615
:1009F000853789F48AE590E09093570180935601FA
:100A00009093550180935401909353018093520128
:100A100085E090E012C08F3689F585E090E09093F4
:100A200057018093560190935501809354012AE514
:100A300030E0309353012093520190935101809301
:100A40005001089585E396E00E9401149093C60535
:100A50008093C50508950C94870281E090E09093FF
:100A6000D0058093CF051092DC051092DB059093A2
:100A70004B0680934A0608950C949002089587349B
:100A800099F044F48D32B1F02CF19DEB980F923037
:100A900008F50AC0833541F01CF48035D9F404C050
:100AA00098EA980F9330B0F491E09093C205809348
:100AB00034060895E091C205F0E0EC5CF94F108235
:100AC0000E94BD048AE0E4E3F6E0DF011D928A950E
:100AD000E9F70895E091C20591E09E0F9093C20559
:100AE000F0E0EC5CF94F8083089565EC71E08FE3F2
:100AF00095E00E94800588E00C9489050C947505AA
:100B00009093D4058093D3057093D2056093D1055B
:100B10000895F894880F8093BA0085EC8093BC0008
:100B200078940895F8941092BC001092BA007894CA
:100B300008951F920F920FB60F9211242F933F9397
:100B40004F935F936F937F938F939F93AF93BF93D5
:100B5000EF93FF938091B900887F803859F028F493
:100B6000811115C01092BC0012C0883A59F0883B20
:100B700049F00DC08091BB00E091D305F091D40500
:100B8000099505C0E091D105F091D205099585EC54
:100B90008093BC00FF91EF91BF91AF919F918F9196
:100BA0007F916F915F914F913F912F910F900FBE69
:100BB0000F901F9018958230910539F08330910580
:100BC00031F0019739F484E003C088E001C08CE083
:100BD00080936900089588309105DCF420916800C5
:100BE00021602093680070935506609354064091ED
:100BF0006B00FC01EE0FFF1FE85AFE4F21E030E0D2
:100C0000008002C0220F331F0A94E2F7242B2093A6
:100C10006B009C012850310927303105E0F4209108
:100C20006800226020936800709353066093520618
:100C300020916C00FC01EE0FFF1FE85AFE4F81E08F
:100C400090E0008002C0880F991F0A94E2F7822B7F
:100C500080936C00089580319105DCF0209168004C
:100C600024602093680070934D0660934C06209199
:100C70006D00880F991FFC01E85AFE4F81E090E05B
:100C8000008002C0880F991F0A94E2F7822B80939C
:100C90006D0008951F920F920FB60F9211242F939B
:100CA0003F934F935F936F937F938F939F93AF93F4
:100CB000BF93EF93FF93E0914E06F0914F06099595
:100CC000FF91EF91BF91AF919F918F917F916F9124
:100CD0005F914F913F912F910F900FBE0F901F90FA
:100CE00018951F920F920FB60F9211242F933F93D6
:100CF0004F935F936F937F938F939F93AF93BF9324
:100D0000EF93FF93E0915006F09151060995FF9102
:100D1000EF91BF91AF919F918F917F916F915F9173
:100D20004F913F912F910F900FBE0F901F901895EC
:100D30001F920F920FB60F9211242F933F934F9350
:100D40005F936F937F938F939F93AF93BF93EF9333
:100D5000FF93E0915406F09155060995FF91EF91AC
:100D6000BF91AF919F918F917F916F915F914F91C3
:100D70003F912F910F900FBE0F901F9018951F92CB
:100D80000F920FB60F9211242F933F934F935F93BF
:100D90006F937F938F939F93AF93BF93EF93FF9343
:100DA000E0915206F09153060995FF91EF91BF91A2
:100DB000AF919F918F917F916F915F914F913F91F3
:100DC0002F910F900FBE0F901F9018951F920F92AA
:100DD0000FB60F9211242F933F934F935F936F930E
:100DE0007F938F939F93AF93BF93EF93FF93E09184
:100DF0004C06F0914D060995FF91EF91BF91AF918F
:100E00009F918F917F916F915F914F913F912F9122
:100E10000F900FBE0F901F901895009789F46230C5
:100E2000710541F06330710539F06130710569F485
:100E300081E003C082E001C083E0809369000895EF
:100E4000019719F4CB010C94DB050895CF93DF9340
:100E5000EB01009759F4BA0180E090E00E940D0781
:100E6000E89AD0934F06C0934E060AC0019741F40A
:100E7000CA010E94DB05E99AD0935106C09350063F
:100E8000DF91CF9108952FEF89EF90E021508040BE
:100E90009040E1F700C0000062E070E084E40E944E
:100EA0009D01892B51F081E090E09093570680934B
:100EB00056068EE092E00C943D14F89498E088E198
:100EC0000FB6F894A895809360000FBE90936000D1
:100ED000FFCF2FEF89EF90E0215080409040E1F765
:100EE00000C0000060E070E083E40E949D01892B57
:100EF00061F061E070E083E40E949D01892B29F09C
:100F000061E070E081E090E012C060E070E083E4B6
:100F10000E949D0161E070E0892B39F483E40E9416
:100F20009D01892B31F060E070E080E090E00E944C
:100F3000A20962E070E083E40E949D01892B51F0D8
:100F400063E070E083E40E949D01892B19F060E06A
:100F500070E015C062E070E083E40E949D01892B7F
:100F600029F060E070E081E090E00BC063E070E0A9
:100F700083E40E949D01892B31F061E070E082E002
:100F800090E00C94A20908950C94330341E050E0E2
:100F900065E070E082E40E947A0041E050E064E0A5
:100FA00070E082E40E947A0041E050E063E070E08B
:100FB00082E40E947A0041E050E062E070E082E466
:100FC0000E947A0041E050E061E070E082E40E941B
:100FD0007A0041E050E060E070E082E40E947A0034
:100FE00041E050E067E070E084E40E947A0041E074
:100FF00050E066E070E084E40E947A0041E050E056
:1010000065E070E084E40E947A0041E050E064E032
:1010100070E084E40E947A0041E050E063E070E018
:1010200084E40C947A00AF92BF92CF92DF92EF9259
:10103000FF920F931F93CF93DF936B01EC018EE32D
:10104000E82E86E0F82E00E010E0AA24A394B12C4C
:101050000C151D058CF4BE86AD861A8A198AF70117
:10106000119211927F0169817A8188810E94280101
:101070000F5F1F4F6B96ECCFDF91CF911F910F91B8
:10108000FF90EF90DF90CF90BF90AF900895CF92F8
:10109000DF92EF92FF920F931F93CF93DF936B0139
:1010A000EC018EE3E82E86E0F82E00E010E00C154F
:1010B0001D058CF41E861D861A8A198AF701119265
:1010C00011927F0169817A8188810E94EF000F5F10
:1010D0001F4F6B96ECCFDF91CF911F910F91FF9037
:1010E000EF90DF90CF90089520E030E0261737078B
:1010F0003CF4FC01128A118A2F5F3F4F4B96F6CFCA
:1011000008956093D7057093D8058093D90590937F
:10111000DA050895FC01748B638B0895CF93DF93F8
:10112000FC012585368521303105F1F4EC01728B07
:10113000618B4130510541F4508B47876481758143
:1011400083810E94EF0009C0452BA1F4108A178605
:101150006481758183810E9428016F8178858E81E9
:10116000DF91CF910C94EF008FE192E0DF91CF916E
:101170000C943D14DF91CF910895CF92DF92EF92BE
:10118000FF920F931F93CF93DF937B01EC0100E05D
:1011900010E0CC24C394D12C0E151F056CF4DA8E0C
:1011A000C98E41E050E06FEF7FE7CE010E948E08CC
:1011B0000F5F1F4F6B96F0CFDF91CF911F910F9173
:1011C000FF90EF90DF90CF900895FC0120E030E099
:1011D00081E090E0261737075CF4418D528D413055
:1011E000510511F480E090E02F5F3F4F7B96F2CFE6
:1011F0000895FC0121853285621B730B16161706B4
:101200001CF441E050E005C071956195710940E022
:1012100050E00C948E08CF92DF92EF92FF92CF9322
:10122000DF93EC0169857A85072E000C880B990BFA
:101230000E94DF126B017C018B859C85BC01990F9C
:10124000880B990B0E94DF129B01AC01C701B6010C
:101250000E94351220E030E048EC52E40E949413E2
:1012600020E030E040E05FE30E94C4110E94A7123A
:10127000CB01DF91CF91FF90EF90DF90CF90089559
:10128000CF92DF92EF92FF92CF93DF93EC01072E84
:10129000000C880B990B0E94DF1220E030E048EC34
:1012A00052E40E9435126B017C014B855C85BA01CA
:1012B000550F880B990B0E94DF129B01AC01C701EF
:1012C000B6010E9494130E94A712CE01DF91CF9124
:1012D000FF90EF90DF90CF900C94F9088F929F923F
:1012E000AF92BF92CF92DF92EF920F931F93CF9363
:1012F000DF93CDB7DEB7FC01608352834183238344
:1013000015830483E682D086C782128611861686EC
:101310001586128A118A8E859F85948B838B858A88
:10132000968AA78AB08E128E118ECF01DF91CF914F
:101330001F910F91EF90DF90CF90BF90AF909F9053
:101340008F9008952BE1289FF001299FF00D112423
:10135000ED51FA4F218D328D2130310561F561302B
:10136000710549F4108A178640E050E06FEF7FE77F
:10137000CF010C948E08672BF1F4418952892FEF2D
:101380003FE7241B350B3487238712861186128A88
:10139000118A128E118E3F932F939F938F9381E426
:1013A00092E09F938F930E9427140F900F900F90BD
:1013B0000F900F900F9008958F929F92AF92BF92CF
:1013C000CF92DF92EF92FF920F931F93CF93DF9311
:1013D0000EE316E0C9EED5E08F819885019709F0FC
:1013E00082C08B859C85181619060CF07CC0F8010C
:1013F000808191817C01FFEFEF1AFF0AF801F182F1
:10140000E0826D857E85072E000C880B990B0E946B
:10141000DF1220E030E044EB53E40E94941320E01C
:1014200030E040E752E40E9435122F85388949891F
:101430005A890E9435129B01AC0160E070E08AE796
:1014400094E40E9435122091D7053091D80540913F
:10145000D9055091DA050E9435124B015C01B701A4
:10146000FF0C880B990B0E94DF126B017C0120E0BE
:1014700030E040E05FE3C501B4010E9494139B019A
:10148000AC01C701B6010E94301269817A81181639
:1014900024F088810E94EF0003C088810E94280107
:1014A000F80160817181072E000C880B990B0E9456
:1014B000DF12A50194010E948F1387FD14C0F8016B
:1014C000118210828B859C8501979C878B8729854B
:1014D0003A858B819C812130310511F4019601C040
:1014E00001979C838B830E5F1F4F6B96F6E0CA3388
:1014F000DF0709F071CFDF91CF911F910F91FF901E
:10150000EF90DF90CF90BF90AF909F908F90089515
:1015100024B52C7F24BD25B5277E25BDEEE6F0E061
:1015200020812160208325B5236025BD90935B0633
:1015300080935A060895EFE6F0E080818F7D8083E6
:1015400080818D7F808380818B7F808380818E7F6F
:1015500080830895892B29F080916F0080628093A9
:101560006F00672B29F080916F00826080936F007D
:10157000452B29F080916F00846080936F00232BAE
:1015800029F080916F00816080936F000895209111
:1015900080002F7320938000209180002F7C209367
:1015A00080008230910549F08330910551F0019718
:1015B00069F480918000806407C080918000806819
:1015C00003C080918000806C809380006230710540
:1015D00051F06330710559F06130710569F4809103
:1015E0008000806107C080918000806203C080918C
:1015F00080008063809380000895CF92DF92EF9205
:10160000FF9220E030E04AE754E40E9435126B017B
:101610007C0127E337E346E85BE30E9430121816AB
:101620001CF081E090E033C027E337E346E05DE360
:10163000C701B6010E94301218161CF088E090E035
:1016400026C027E337E346E85EE3C701B6010E9400
:10165000301218161CF080E490E019C027E337E33D
:1016600046E85FE3C701B6010E94301218161CF06D
:1016700080E091E00CC027E337E346E850E4C7017F
:10168000B6010E943012181634F080E094E0909376
:10169000D6058093D50580918100887F8093810055
:1016A0008091D5059091D60580349105C9F04CF410
:1016B0008130910589F00897E1F480918100826082
:1016C00016C0811521E0920779F08115944089F4C4
:1016D0008091810085600BC080918100816007C08E
:1016E00080918100836003C0809181008460809339
:1016F0008100FF90EF90DF90CF90089520918000BF
:101700002C7F2093800020918100277E20938100F0
:1017100001978F30910508F048C0845B9F4FFC0112
:101720000C94BD1180918000816007C08091800081
:10173000826003C080918000836080938000089560
:1017400080918000816007C080918000826003C02A
:101750008091800083608093800011C08091800020
:10176000816007C080918000826003C0809180000A
:1017700083608093800080918100806114C080919B
:101780008100886010C080918000816007C08091D6
:101790008000826003C0809180008360809380001D
:1017A000809181008861809381000895CF92DF92BB
:1017B000EF92FF92CF93DF93EA0120E030E040E028
:1017C0005FE30E9494136B017C0184E090E00E942F
:1017D0007E0BC701B6010E94FD0AEFE6F0E08081B2
:1017E0008260808320E030E04AE754E4C701B6011C
:1017F0000E9435126B017C012091D5053091D605F0
:10180000032E000C440B550B60E074E284EF90E073
:101810000E947C11CA01B9010E94DD129B01AC013A
:10182000C701B6010E94941320E030E040E85FE376
:101830000E94C4110E94A7127093890060938800CF
:10184000D0935906C0935806DF91CF91FF90EF9047
:10185000DF90CF9008954F925F926F927F928F9218
:101860009F92AF92BF92CF92DF92EF92FF920F932F
:101870001F93CF93DF9300D000D0CDB7DEB72B01FD
:101880003C0149015A01E982FA820B831C838EE0F4
:1018900090E00E947E0BC301B2010E94FD0A20E08D
:1018A00030E04AE754E4C301B2010E9435122B0133
:1018B0003C012091D5053091D605032E000C440B38
:1018C000550BC12C84E2D82E84EFE82EF12CC701F1
:1018D000B6010E947C11CA01B9010E94DD129B0170
:1018E000AC01C301B2010E94941320E030E040E853
:1018F0005FE30E94C4110E94A71296E8692E712C22
:10190000F3017183608320E030E04AE754E4C501CD
:10191000B4010E9435124B015C012091D505309134
:10192000D605032E000C440B550BC701B6010E94CF
:101930007C11CA01B9010E94DD129B01AC01C501F5
:10194000B4010E94941320E030E040E85FE30E947D
:10195000C4110E94A71208E810E0F80171836083A7
:1019600020E030E04AE754E469817A818B819C81F0
:101970000E9435124B015C012091D5053091D605AE
:10198000032E000C440B550BC701B6010E947C11BD
:10199000CA01B9010E94DD129B01AC01C501B4016D
:1019A0000E94941320E030E040E85FE30E94C411FD
:1019B0000E94A7122AE8E22EF12CF70171836083BE
:1019C00063E070E083E090E00E94C70AF301808149
:1019D00091819F938F9389E692E09F938F930E94CA
:1019E0002714F801808191819F938F9384E792E07F
:1019F0009F938F930E942714F701808191819F9379
:101A00008F9380E892E09F938F930E9427140FB6E4
:101A1000F894DEBF0FBECDBF0F900F900F900F90C8
:101A2000DF91CF911F910F91FF90EF90DF90CF90BA
:101A3000BF90AF909F908F907F906F905F904F90EE
:101A400008951F920F920FB60F9211242F933F9378
:101A50004F935F936F937F938F939F93AF93BF93B6
:101A6000EF93FF93E0915A06F0915B060995FF9181
:101A7000EF91BF91AF919F918F917F916F915F9106
:101A80004F913F912F910F900FBE0F901F9018957F
:101A90001F920F920FB60F9211242F933F934F93E3
:101AA0005F936F937F938F939F93AF93BF93EF93C6
:101AB000FF93E0915806F09159060995FF91EF9137
:101AC000BF91AF919F918F917F916F915F914F9156
:101AD0003F912F910F900FBE0F901F9018951F925E
:101AE0000F920FB60F9211242F933F934F935F9352
:101AF0006F937F938F939F93AF93BF93EF93FF93D6
:101B0000E0915806F09159060995FF91EF91BF9128
:101B1000AF919F918F917F916F915F914F913F9185
:101B20002F910F900FBE0F901F9018951F920F923C
:101B30000FB60F9211242F933F934F935F936F93A0
:101B40007F938F939F93AF93BF93EF93FF93E09116
:101B50005806F09159060995FF91EF91BF91AF9109
:101B60009F918F917F916F915F914F913F912F91B5
:101B70000F900FBE0F901F9018951F920F920FB6E7
:101B80000F9211242F933F934F935F936F937F9303
:101B90008F939F93AF93BF93EF93FF93E09158067A
:101BA000F09159060995FF91EF91BF91AF919F91E7
:101BB0008F917F916F915F914F913F912F910F90F6
:101BC0000FBE0F901F9018958CE892E00E943D1474
:101BD00084E992E00E943D1485EB92E00E943D145E
:101BE00087ED92E00E943D148EEF92E00E943D143A
:101BF0008FE293E00E943D148CE593E00E943D1437
:101C000088E693E00E943D1489E893E00E943D1429
:101C10008AEA93E00E943D148FEB93E00E943D140A
:101C200083ED93E00E943D1488EE93E00E943D1402
:101C300085EF93E00C943D14CF92DF92EF92FF92E8
:101C40000F931F93CF93DF936C017B01633071057A
:101C50005CF0C60104960E9401148C01F601C28159
:101C60000C2E000CDD0BE097F6012181283409F4DD
:101C700065C1ECF4243409F43DC13CF4213409F489
:101C8000E1C0223409F465C085C1263409F441C09D
:101C90000CF442C18EEE94E00E943D1403EE15E078
:101CA000C0E0D0E09BE0E92E95E0F92EF3C02635A8
:101CB00009F478C0C4F4223509F49CC0233509F036
:101CC00069C186E495E00E943D1463E070E083EE14
:101CD00095E0DF91CF911F910F91FF90EF90DF90F2
:101CE000CF900C947408283609F44AC1223709F4BD
:101CF00037C1273609F04EC18BE195E00E943D14B3
:101D000003EE15E0C0E0D0E088E3E82E85E0F82E91
:101D1000D9C0F5E0EF16F1041CF482E094E03CC178
:101D2000DF93CF931F930F9380E394E09F938F9360
:101D30000E9427140F900F900F900F900F900F900C
:101D40002BE12C9FC0012D9F900D112441E050E00C
:101D50001CC0F5E0EF16F10404F3DF93CF931F935B
:101D60000F9383E594E09F938F930E9427140F9025
:101D70000F900F900F900F900F902BE12C9FC001B0
:101D80002D9F900D112440E050E0B8018D519A4FE5
:101D9000DF91CF911F910F91FF90EF90DF90CF9047
:101DA0000C948E08F5E0EF16F1040CF4B6CF1F93F7
:101DB0000F93DF93CF9387E794E09F938F930E94D5
:101DC00027140F900F900F900F900F900F902BE112
:101DD0002C9FC0012D9F900D1124B8018D519A4F59
:101DE000DF91CF911F910F91FF90EF90DF90CF90F7
:101DF0000C948A08F5E0EF16F1040CF48ECF1F93D3
:101E00000F93DF93CF938AE994E09F938F930E947F
:101E100027140F900F900F900F900F900F902BE1C1
:101E20002C9FC0012D9F900D1124B8018D519A4F08
:101E3000DF91CF911F910F91FF90EF90DF90CF90A6
:101E40000C944009F5E0EF16F1040CF466CF1F93F3
:101E50000F93DF93CF9383EC94E09F938F930E9433
:101E600027140F900F900F900F900F900F902BE171
:101E70002C9FC0012D9F900D1124B8018D519A4FB8
:101E8000DF91CF911F910F91FF90EF90DF90CF9056
:101E90000C94F908C8010E940B099F938F93DF935C
:101EA000CF93FF92EF920E9427142196055E1F4F59
:101EB0000F900F900F900F900F900F90C330D1059F
:101EC00049F774C0F80182858F9381858F93DF93E2
:101ED000CF93FF92EF920E9427142196055E1F4F29
:101EE0000F900F900F900F900F900F90C330D1056F
:101EF00049F75CC086E595E00E943D1463E070E020
:101F000083EE95E0DF91CF911F910F91FF90EF90BD
:101F1000DF90CF900C94470886E695E00E943D1430
:101F200063E070E083EE95E0DF91CF911F910F9118
:101F3000FF90EF90DF90CF900C94130885E795E029
:101F40000E943D1463E070E083EE95E0DF91CF9155
:101F50001F910F91FF90EF90DF90CF900C94BD08F0
:101F60008DE895E00E943D14F89498E088E10FB662
:101F7000F894A895809360000FBE90936000FFCF07
:101F8000DF91CF911F910F91FF90EF90DF90CF9055
:101F90000C94E40D86E995E0DF91CF911F910F91AC
:101FA000FF90EF90DF90CF900C943D14DF91CF9194
:101FB0001F910F91FF90EF90DF90CF9008950F93B6
:101FC0001F93CF93DF938A01E90120E130E040E0E5
:101FD00050E00E949E11CA01B901980140E050E012
:101FE0000E949E11215031093093C5002093C400F6
:101FF00088E98093C1008EE08093C200D0935D0693
:10200000C0935C06DF91CF911F910F91089590913D
:10201000C00095FFFCCF8093C60080E090E008955B
:102020008091C00087FFFCCF8091C60090E00895AA
:102030001F920F920FB60F9211242F933F934F933D
:102040005F936F937F938F939F93AF93BF93EF9320
:10205000FF9388E891E00E9410108D3071F08A3370
:1020600031F0E0913E068A30B9F46E2F08C091E05D
:1020700090933E0680935E0617C060913E0670E026
:10208000FB01E25AF94F1082E0915C06F0915D0687
:102090008EE596E0099508C091E09E0F90933E066C
:1020A000F0E0E25AF94F8083FF91EF91BF91AF9139
:1020B0009F918F917F916F915F914F913F912F9160
:1020C0000F900FBE0F901F901895CF93DF93CDB751
:1020D000DEB76B970FB6F894DEBF0FBECDBF109280
:1020E00057061092560688E891E090937D068093FB
:1020F0007C0690937F0680937E062CE13EE040E0D4
:1021000051EE60E074E284EF90E00E94DF0F41E066
:1021100050E063E477E080E090E00E9426070E94B0
:10212000C6071F928AE0F82EFF92812C912C90EF27
:10213000A92E90E4B92E25E0C22ED12C34E4E32E52
:1021400004E010E024E443E050E064E4CE010196B2
:102150000E946E098BE1FE013196A3EEB5E001907D
:102160000D928A95E1F71F92FF9246E6842E982CF5
:1021700046EEA42E4FE3B42EC12CD12C52E4E52E12
:1021800007E010E024E446E050E064E4CE0101966C
:102190000E946E098BE1FE013196AEEFB5E0019031
:1021A0000D928A95E1F71F92FF9263E0C62ED12C23
:1021B00002E010E022E441E050E062E4CE0101964A
:1021C0000E946E098BE1FE013196A9E1B6E0019013
:1021D0000D928A95E1F769E677E088E090E00E9449
:1021E000EB0569E677E089E090E00E94EB0569E69F
:1021F00077E08AE090E00E94EB0569E677E08BE00B
:1022000090E00E94EB05789482E192E00E943D14F8
:102210000F900F900F900F900F900F908091560697
:10222000909157068130910509F1A8F0823091050F
:1022300081F183309105B1F784EC97E00E94880A20
:102240002AEA36EE86E991E0215030408040904005
:10225000D9F70000E3CF65E070E082E40E94EF0070
:1022600064E070E082E40E942801D8CF8EE092E022
:102270000E943D1465E070E082E40E94280164E061
:1022800070E082E40E94EF00109357060093560618
:10229000C5CF86E192E00E943D1460E070E080E8E6
:1022A0009FE30E94810863E070E083EE95E00E9466
:1022B00013084CED59E060E070E080E89FE30E9475
:1022C000D60B63E070E083EE95E00E94BD0863E00A
:1022D00070E083EE95E00E94E508892BC1F383E06E
:1022E00090E090935706809356068BE192E00E940F
:1022F0003D140E947E0592CFA1E21A2EAA1BBB1BA1
:10230000FD010DC0AA1FBB1FEE1FFF1FA217B307C1
:10231000E407F50720F0A21BB30BE40BF50B661FD7
:10232000771F881F991F1A9469F76095709580959B
:1023300090959B01AC01BD01CF010895052E97FB3F
:102340001EF400940E94B51157FD07D00E947C1125
:1023500007FC03D04EF40C94B51150954095309580
:1023600021953F4F4F4F5F4F089590958095709501
:1023700061957F4F8F4F9F4F0895EE0FFF1F059080
:10238000F491E02D09945058BB27AA270E94DB1135
:102390000C9455130E94471338F00E944E1320F0FE
:1023A00039F49F3F19F426F40C9444130EF4E0958D
:1023B000E7FB0C943E13E92F0E94661358F3BA17FB
:1023C000620773078407950720F079F4A6F50C944B
:1023D00088130EF4E0950B2EBA2FA02D0B01B90136
:1023E00090010C01CA01A0011124FF27591B99F08B
:1023F000593F50F4503E68F11A16F040A22F232F97
:10240000342F4427585FF3CF469537952795A795E6
:10241000F0405395C9F77EF41F16BA0B620B730B8D
:10242000840BBAF09150A1F0FF0FBB1F661F771FFE
:10243000881FC2F70EC0BA0F621F731F841F48F4B3
:10244000879577956795B795F7959E3F08F0B0CF3C
:102450009395880F08F09927EE0F97958795089523
:102460000E941A1308F481E008950E9449120C9406
:1024700055130E944E1358F00E94471340F029F460
:102480005F3F29F00C943E1351110C9489130C9466
:1024900044130E94661368F39923B1F3552391F313
:1024A000951B550BBB27AA2762177307840738F0C3
:1024B0009F5F5F4F220F331F441FAA1FA9F335D020
:1024C0000E2E3AF0E0E832D091505040E695001CD4
:1024D000CAF72BD0FE2F29D0660F771F881FBB1F8E
:1024E000261737074807AB07B0E809F0BB0B802D6C
:1024F000BF01FF2793585F4F3AF09E3F510578F098
:102500000C943E130C9489135F3FE4F3983ED4F38C
:10251000869577956795B795F7959F5FC9F7880F6B
:10252000911D9695879597F90895E1E0660F771FBD
:10253000881FBB1F621773078407BA0720F0621B4E
:10254000730B840BBA0BEE1F88F7E09508950E9479
:10255000AE126894B1110C94891308950E946E1301
:1025600088F09F5798F0B92F9927B751B0F0E1F054
:10257000660F771F881F991F1AF0BA95C9F714C004
:10258000B13091F00E948813B1E008950C94881343
:10259000672F782F8827B85F39F0B93FCCF386953D
:1025A00077956795B395D9F73EF49095809570959A
:1025B00061957F4F8F4F9F4F0895E89409C097FB17
:1025C0003EF490958095709561957F4F8F4F9F4F0A
:1025D0009923A9F0F92F96E9BB279395F69587954E
:1025E00077956795B795F111F8CFFAF4BB0F11F411
:1025F00060FF1BC06F5F7F4F8F4F9F4F16C08823B8
:1026000011F096E911C0772321F09EE8872F762FED
:1026100005C0662371F096E8862F70E060E02AF02E
:102620009A95660F771F881FDAF7880F969587951A
:1026300097F90895990F0008550FAA0BE0E8FEEFEF
:1026400016161706E807F907C0F012161306E40776
:10265000F50798F0621B730B840B950B39F40A266F
:1026600061F0232B242B252B21F408950A2609F44D
:10267000A140A6958FEF811D811D089597F99F6751
:1026800080E870E060E008959FEF80EC08950024FA
:102690000A941616170618060906089500240A94C7
:1026A00012161306140605060895092E0394000C4D
:1026B00011F4882352F0BB0F40F4BF2B11F460FFDC
:1026C00004C06F5F7F4F8F4F9F4F089557FD905805
:1026D000440F551F59F05F3F71F04795880F97FBE6
:1026E000991F61F09F3F79F08795089512161306A0
:1026F0001406551FF2CF4695F1DF08C016161706CF
:102700001806991FF1CF8695710561050894089503
:10271000E894BB2766277727CB0197F908950E9495
:102720001A1308F48FEF08950E94A7130C94551301
:102730000E94471338F00E944E1320F0952311F0A9
:102740000C943E130C94441311240C9489130E948E
:10275000661370F3959FC1F3950F50E0551F629F6C
:10276000F001729FBB27F00DB11D639FAA27F00DEA
:10277000B11DAA1F649F6627B00DA11D661F829F11
:102780002227B00DA11D621F739FB00DA11D621FF6
:10279000839FA00D611D221F749F3327A00D611D13
:1027A000231F849F600D211D822F762F6A2F1124F5
:1027B0009F5750409AF0F1F088234AF0EE0FFF1F28
:1027C000BB1F661F771F881F91505040A9F79E3F7F
:1027D000510580F00C943E130C9489135F3FE4F391
:1027E000983ED4F3869577956795B795F795E795D5
:1027F0009F5FC1F7FE2B880F911D9695879597F9DE
:102800000895FC0188279927E89421912032E9F363
:10281000293010F02E30C8F32B3241F02D3239F42C
:10282000689404C00E941F14820F911D21912053AF
:102830002A30C0F31EF4909581959F4F08957AE059
:10284000979F902D879F802D910D11240895A0E0D2
:10285000B0E0EDE2F4E10C941E17AE014B5F5F4F68
:10286000FA0161917191AF0180917E0690917F068E
:102870000E949014E2E00C943A170F931F93CF93A9
:10288000DF93E0917E06F0917F06238121FF1BC03C
:102890008C01D0E0C0E0F80181918F0160917E064B
:1028A00070917F06DB011896ED91FC9119978823B2
:1028B00031F00995892B79F3DFEFCFEFECCF8AE088
:1028C0000995892B19F08FEF9FEF02C08D2F9C2F58
:1028D000DF91CF911F910F910895AEE0B0E0E3E753
:1028E000F4E10C941C170D891E8986E08C831A83F1
:1028F00009838FEF9FE79E838D83AE01475E5F4F15
:102900006F89788DCE0101960E9490142F813885B1
:10291000F801E20FF31F10822E96E4E00C943817B2
:10292000ACE0B0E0E6E9F4E10C940E177C016B0139
:102930008A01FC0117821682838181FFBDC1CE010D
:1029400001964C01F7019381F60193FD859193FF68
:1029500081916F01882309F4ABC1853239F493FD6D
:10296000859193FF81916F01853229F4B70190E041
:102970000E947816E7CF512C312C20E02032A0F4B1
:102980008B3269F030F4803259F0833269F420617F
:102990002CC08D3239F0803339F4216026C022609A
:1029A000246023C0286021C027FD27C030ED380FE8
:1029B0003A3078F426FF06C0FAE05F9E300D11240D
:1029C000532E13C08AE0389E300D1124332E20621E
:1029D0000CC08E3221F426FD6BC1206406C08C36FB
:1029E00011F4206802C0883641F4F60193FD859108
:1029F00093FF81916F018111C1CF982F9F7D9554D5
:102A0000933028F40C5F1F4FFFE3F9830DC083362A
:102A100031F0833771F0833509F05BC022C0F801D3
:102A2000808189830E5F1F4F44244394512C5401AD
:102A300015C03801F2E06F0E711CF801A080B18062
:102A400026FF03C0652D70E002C06FEF7FEFC50168
:102A50002C870E946D162C0183012C852F77222E46
:102A600017C03801F2E06F0E711CF801A080B18030
:102A700026FF03C0652D70E002C06FEF7FEFC50138
:102A80002C870E9462162C012C852068222E83013F
:102A900023FC1BC0832D90E048165906B0F4B70103
:102AA00080E290E00E9478163A94F4CFF50127FC7A
:102AB000859127FE81915F01B70190E00E94781611
:102AC00031103A94F1E04F1A51084114510471F752
:102AD000E5C0843611F0893639F5F80127FF07C0C3
:102AE00060817181828193810C5F1F4F08C060817A
:102AF0007181072E000C880B990B0E5F1F4F2F76EC
:102B0000722E97FF09C090958095709561957F4FC3
:102B10008F4F9F4F2068722E2AE030E0A4010E9460
:102B2000B016A82EA81844C0853729F42F7EB22EDF
:102B30002AE030E025C0F22FF97FBF2E8F36C1F09A
:102B400018F4883579F0B4C0803719F0883721F04F
:102B5000AFC02F2F2061B22EB4FE0DC08B2D84602C
:102B6000B82E09C024FF0AC09F2F9660B92E06C058
:102B700028E030E005C020E130E002C020E132E092
:102B8000F801B7FE07C060817181828193810C5F7B
:102B90001F4F06C06081718180E090E00E5F1F4F83
:102BA000A4010E94B016A82EA818FB2DFF777F2E37
:102BB00076FE0BC0372D3E7FA51450F474FE0AC07C
:102BC00072FC08C0372D3E7E05C0BA2C372D03C0DD
:102BD000BA2C01C0B52C34FF0DC0FE01EA0DF11D69
:102BE0008081803311F4397E09C032FF06C0B3946E
:102BF000B39404C0832F867809F0B39433FD13C0D7
:102C000030FF06C05A2CB31418F4530C5B18B32CC5
:102C1000B31468F4B70180E290E03C870E94781614
:102C2000B3943C85F5CFB31410F43B1801C0312C9C
:102C300034FF12C0B70180E390E03C870E94781611
:102C40003C8532FF17C031FD03C088E790E002C029
:102C500088E590E0B7010CC0832F867859F031FFEA
:102C600002C08BE201C080E237FD8DE2B70190E047
:102C70000E947816A51438F4B70180E390E00E9412
:102C800078165A94F7CFAA94F401EA0DF11D8081C9
:102C9000B70190E00E947816A110F5CF332009F417
:102CA00051CEB70180E290E00E9478163A94F6CFB8
:102CB000F7018681978102C08FEF9FEF2C96E2E1AA
:102CC0000C942A17FC010590615070400110D8F750
:102CD000809590958E0F9F1F0895FC016150704064
:102CE00001900110D8F7809590958E0F9F1F089541
:102CF0000F931F93CF93DF93FB01238121FD03C02B
:102D00008FEF9FEF28C022FF16C046815781248194
:102D100035814217530744F4A081B1819D012F5F93
:102D20003F4F318320838C93268137812F5F3F4F24
:102D30003783268310C0EB01092F182F0084F185FB
:102D4000E02D0995892BE1F68E819F8101969F8365
:102D50008E83812F902FDF91CF911F910F91089536
:102D6000FA01AA27283051F1203181F1E8946F93BC
:102D70006E7F6E5F7F4F8F4F9F4FAF4FB1E03ED062
:102D8000B4E03CD0670F781F891F9A1FA11D680F00
:102D9000791F8A1F911DA11D6A0F711D811D911D33
:102DA000A11D20D009F468943F912AE0269F1124A8
:102DB0003019305D3193DEF6CF010895462F47700C
:102DC000405D4193B3E00FD0C9F7F6CF462F4F7067
:102DD000405D4A3318F0495D31FD4052419302D0C5
:102DE000A9F7EACFB4E0A69597958795779567956B
:102DF000BA95C9F700976105710508959B01AC016B
:102E00000A2E06945795479537952795BA95C9F791
:102E1000620F731F841F951FA01D08952F923F926C
:102E20004F925F926F927F928F929F92AF92BF92DA
:102E3000CF92DF92EF92FF920F931F93CF93DF9386
:102E4000CDB7DEB7CA1BDB0B0FB6F894DEBF0FBEE3
:102E5000CDBF09942A88398848885F846E847D8430
:102E60008C849B84AA84B984C884DF80EE80FD8032
:102E70000C811B81AA81B981CE0FD11D0FB6F894A8
:0E2E8000DEBF0FBECDBFED010895F894FFCF69
:102E8E000000010002000300040005000000010024
:102E9E000200030004000500000001000200030010
:102EAE0004000500060007000000010002000300F8
:102EBE0004000500000001000200030004000500EC
:102ECE0000000100020003000400050006000700D8
:102EDE0005005A0005000500000001000200030075
:102EEE0004000500060007000000010002000300B8
:102EFE0004000500060006000000010002000300A9
:102F0E00040005000600070000000003000000009A
:102F1E000710101000004572726F722C206F7574BE
:102F2E00206F662072616E67652000256400506F09
:102F3E00736974696F6E20544F5F55505F504C41EA
:102F4E00434500506F736974696F6E20544F5F4430
:102F5E004F574E5F504C41434500506F7369746933
:102F6E006F6E20544F5F55505F5245464552454E49
:102F7E00434500506F736974696F6E20544F5F4400
:102F8E004F574E5F5245464552454E4345004143CD
:102F9E005400494E4900484F4D4500504F53004F85
:102FAE0072646572204661696C65643A204D6F7477
:102FBE006F72206973206E6F7420656E61626C652E
:102FCE0000454E4420696E74657272757074206D82
:102FDE006F746F722025642E204D617820537465B6
:102FEE007073203D2025640A0049435231203D2054
:102FFE0025640A004F43523141203D2025640A00CA
:10300E004F43523142203D2025640A000A55736118
:10301E0067653A003A466D2E6E6E6E202D3E203A52
:10302E00466F72776172645B6D6F746F725D2E7333
:10303E0074657073003A426D2E6E6E6E202D3E20BA
:10304E003A4261636B776172645B6D6F746F725D30
:10305E002E7374657073003A526D2E6E6E6E202D47
:10306E003E203A52656C61746976655B6D6F746F64
:10307E00725D2E70657263656E74616765003A5697
:10308E006D2E6E6E6E202D3E203A56656C6F636906
:10309E0074795B6D6F746F725D2E7265766F6C7581
:1030AE0074696F6E735065724D696E757465003A12
:1030BE00416D2E6E6E6E202D3E203A4162736F6C06
:1030CE00757465506F736974696F6E5B6D6F746F35
:1030DE00725D2E706F736974696F6E003A53202D96
:1030EE003E203A53746F70003A47202D3E203A47E7
:1030FE00657452656C6174697665506F7369746935
:10310E006F6E4D6F746F7273003A67202D3E203ACA
:10311E006765744162736F6C757465506F73697413
:10312E00696F6E4D6F746F7273003A44202D3E209E
:10313E003A44697361626C654D6F746F7273003AD5
:10314E0045202D3E203A456E61626C654D6F746F61
:10315E007273003A48202D3E203A486F6D696E67B3
:10316E00526F7574696E65003A72202D3E203A7268
:10317E0065736574003A68202D3E203A68656C7060
:10318E000A004E6F7420656E6F75676820617267F6
:10319E00756D656E74732C207573652068656C7023
:1031AE0020636F6D6D616E6420283A68292E2000B1
:1031BE004D6F76696E6720666F7277617264202537
:1031CE0064207374657073206D6F746F7220256444
:1031DE00200A004D6F76696E67206261636B7761BE
:1031EE007264202564207374657073206D6F746F24
:1031FE0072202564200A004D6F746F7220256420A2
:10320E007370656564206368616E67656420746FB2
:10321E002025642072706D200A004D6F76696E67EE
:10322E00206D6F746F7220256420746F2072656C30
:10323E00617469766520706F736974696F6E20258D
:10324E00640A004D6F746F72202564206162736F83
:10325E006C75746520706F736974696F6E20636826
:10326E00616E67656420746F202564200A005265C4
:10327E006C617469766520706F736974696F6E2006
:10328E006F66206D6F746F72733A004D6F746F724C
:10329E002025643A20256425250A004162736F6C4F
:1032AE0075746520706F736974696F6E206F662018
:1032BE006D6F746F72733A004D6F746F7220256468
:1032CE003A2025640A0053746F7070696E67206D22
:1032DE006F746F7273004D6F746F727320646973C5
:1032EE0061626C6564004D6F746F727320656E6100
:1032FE00626C6564005374617274696E6720686FE6
:10330E006D696E6720726F7574696E6500526573B4
:10331E006574696E6700436F6D6D616E64206E6FCC
:10332E007420666F756E642C207573652068656CED
:10333E007020636F6D6D616E6420283A68292E20AF
:02334E0000007D
:00000001FF
