:100000000C9443000C94B3030C94DA030C94010495
:100010000C9428040C944F040C9460000C94600021
:100020000C9460000C9460000C94C30A0C94750A44
:100030000C94EA0A0C949C0A0C9460000C946000E6
:100040000C9460000C9460000C94450D0C946000BE
:100050000C9460000C9460000C9460000C946000A0
:100060000C9402030C946000E608EA08EE081309F9
:10007000F408F808FC080F09020906090A0913091F
:1000800017091B091F0911241FBECFEFD8E0DEBFDF
:10009000CDBF15E0A0E0B1E0E2EDF8E202C00590CE
:1000A0000D92A434B107D9F725E0A4E4B5E001C06E
:1000B0001D92AA3FB207E1F70E94920D0C946714BB
:1000C0000C940000452BB9F1843481F42AB1660FF9
:1000D000771FFB01E85EFE4F81E090E0008002C0E8
:1000E000880F991F0A94E2F7822B37C0823481F47B
:1000F00024B1660F771FFB01E45FFE4F81E090E0C3
:10010000008002C0880F991F0A94E2F7822B39C041
:10011000833409F04BC027B1660F771FFB01E05015
:10012000FF4F81E090E0008002C0880F991F0A9481
:10013000E2F7822B3AC0843491F42AB1660F771F1C
:10014000FB01E85EFE4F81E090E0008002C0880F76
:10015000991F0A94E2F7809582238AB90895823420
:1001600091F424B1660F771FFB01E45FFE4F81E03D
:1001700090E0008002C0880F991F0A94E2F78095F2
:10018000822384B90895833489F427B1660F771FD9
:10019000FB01E050FF4F81E090E0008002C0880F3B
:1001A000991F0A94E2F78095822387B908958434D1
:1001B00089F42BB1660F771FFB01E05CFE4F81E0F5
:1001C00090E0008002C0880F991F0A94E2F7822B0A
:1001D0008BB90895823489F425B1660F771FFB012E
:1001E000EC5CFE4F81E090E0008002C0880F991F18
:1001F0000A94E2F7822B85B90895833481F428B1FB
:10020000660F771FFB01E85DFE4F81E090E0008004
:1002100002C0880F991F0A94E2F7822B88B90895CB
:10022000843491F42BB1660F771FFB01E05CFE4F25
:1002300081E090E0008002C0880F991F0A94E2F7E5
:10024000809582238BB90895823491F425B1660F8D
:10025000771FFB01EC5CFE4F81E090E0008002C064
:10026000880F991F0A94E2F78095822385B9089533
:10027000833489F428B1660F771FFB01E85DFE4FD8
:1002800081E090E0008002C0880F991F0A94E2F795
:100290008095822388B90895843489F42BB1660F40
:1002A000771FFB01E05CFE4F81E090E0008002C020
:1002B000880F991F0A94E2F782278BB90895823438
:1002C00089F425B1660F771FFB01EC5CFE4F81E0DE
:1002D00090E0008002C0880F991F0A94E2F78227FD
:1002E00085B90895833481F428B1660F771FFB0127
:1002F000E85DFE4F81E090E0008002C0880F991F0A
:100300000A94E2F7822788B90895843439F489B1D0
:10031000660F771FFB01E05CFE4F11C0823439F499
:1003200083B1660F771FFB01EC5CFE4F08C083347E
:1003300099F486B1660F771FFB01E85DFE4F21E05F
:1003400030E0008002C0220F331F0A94E2F790E0F1
:1003500028233923C901089508958EE48093BB00B2
:100360000895AF92BF92CF92DF92EF92FF920F93D8
:100370001F93CF93DF93CDB7DEB7CDB6DEB6893509
:1003800031F08A3541F472E0A72EB12C06C0AA24C0
:10039000A394B12C02C0A12CB12CF501EE0FFF1FCC
:1003A000E75BFA4F808191818A3091053CF0843679
:1003B000910541F042E0E42EF12C07C0EE24E394D5
:1003C000F12C03C023E0E22EF12C2DB73EB72E19FD
:1003D0003F090FB6F8943EBF0FBE2DBF0DB71EB735
:1003E0000F5F1F4F9F938F938EE891E09F938F93A2
:1003F0001F930F930E948F11B7016C5F7F4F0F9077
:100400000F900F900F900F900F908DB79EB7861B97
:10041000970B0FB6F8949EBF0FBE8DBFEDB7FEB71A
:1004200031968AE3ADB7BEB711968C9382E581838E
:10043000A114B10411F480E306C0AA94AB2811F40E
:1004400081E301C082E382838EE28383CF0104963D
:10045000E00EF11E0E151F0539F0D8012D918D010A
:10046000DC012D93CD01F6CF2DB73EB7261B370B00
:100470000FB6F8943EBF0FBE2DBF8DB79EB7019645
:100480009C018F01D8014D918D01D9014D939D01A2
:10049000A8014E1B5F0B46175707A4F30E94490B98
:1004A0000FB6F894DEBE0FBECDBEDF91CF911F9187
:1004B0000F91FF90EF90DF90CF90BF90AF90089595
:1004C00088E50E94B10189E50E94B1018AE50C949A
:1004D000B1018091B005883559F02CF4833439F19D
:1004E0008434D9F10895893569F08A35B1F00895D9
:1004F00081EB95E00E94231190934A058093490572
:1005000088E509C081EB95E00E94231190934C058A
:1005100080934B0589E50C94B10181EB95E00E9435
:10052000231190934E0580934D058AE5F4CF809179
:10053000B1058437E1F48091B2058F3639F481E05A
:1005400090E090934605809345050895853779F4AA
:100550001092460510924505089581EB95E00E94A2
:10056000231190934805809347050C9460020895E9
:10057000843459F02CF48D3271F0833431F013C08F
:10058000883519F084F08B3574F491E0909344052C
:100590008093B0050895E0914405F0E0E055FA4FEE
:1005A00010820C946902E091440591E09E0F9093B3
:1005B0004405F0E0E055FA4F808308956DEA71E05C
:1005C00088EB92E00E94E90288E00C94F2020C941D
:1005D000DE0290935205809351057093500560930D
:1005E0004F050895F894880F8093BA0085EC8093A6
:1005F000BC0078940895F8941092BC001092BA0050
:10060000789408951F920F920FB60F9211242F9392
:100610003F934F935F936F937F938F939F93AF938A
:10062000BF93EF93FF938091B900887F803859F092
:1006300028F4811115C01092BC0012C0883A59F0FC
:10064000883B49F00DC08091BB00E0915105F091CD
:100650005205099505C0E0914F05F09150050995A7
:1006600085EC8093BC00FF91EF91BF91AF919F917A
:100670008F917F916F915F914F913F912F910F904B
:100680000FBE0F901F9018958230910539F083307E
:10069000910531F0019739F484E003C088E001C08E
:1006A0008CE080936900089588309105DCF42091F6
:1006B00068002160209368007093CF056093CE0599
:1006C00040916B00FC01EE0FFF1FE05BFE4F21E04D
:1006D00030E0008002C0220F331F0A94E2F7242B7F
:1006E00020936B009C012850310927303105E0F43C
:1006F000209168002260209368007093CD0560937C
:10070000CC0520916C00FC01EE0FFF1FE05BFE4F5B
:1007100081E090E0008002C0880F991F0A94E2F700
:10072000822B80936C00089580319105DCF020913C
:1007300068002460209368007093C7056093C60525
:1007400020916D00880F991FFC01E05BFE4F81E056
:1007500090E0008002C0880F991F0A94E2F7822B74
:1007600080936D0008951F920F920FB60F9211247F
:100770002F933F934F935F936F937F938F939F93A9
:10078000AF93BF93EF93FF93E091C805F091C90534
:100790000995FF91EF91BF91AF919F918F917F91BB
:1007A0006F915F914F913F912F910F900FBE0F90DE
:1007B0001F9018951F920F920FB60F9211242F932E
:1007C0003F934F935F936F937F938F939F93AF93D9
:1007D000BF93EF93FF93E091CA05F091CB05099584
:1007E000FF91EF91BF91AF919F918F917F916F9109
:1007F0005F914F913F912F910F900FBE0F901F90DF
:1008000018951F920F920FB60F9211242F933F93BA
:100810004F935F936F937F938F939F93AF93BF9308
:10082000EF93FF93E091CE05F091CF050995FF91ED
:10083000EF91BF91AF919F918F917F916F915F9158
:100840004F913F912F910F900FBE0F901F901895D1
:100850001F920F920FB60F9211242F933F934F9335
:100860005F936F937F938F939F93AF93BF93EF9318
:10087000FF93E091CC05F091CD050995FF91EF91A3
:10088000BF91AF919F918F917F916F915F914F91A8
:100890003F912F910F900FBE0F901F9018951F92B0
:1008A0000F920FB60F9211242F933F934F935F93A4
:1008B0006F937F938F939F93AF93BF93EF93FF9328
:1008C000E091C605F091C7050995FF91EF91BF91A1
:1008D000AF919F918F917F916F915F914F913F91D8
:1008E0002F910F900FBE0F901F901895009789F4CD
:1008F0006230710541F06330710539F06130710586
:1009000069F481E003C082E001C083E08093690064
:100910000895019719F4CB010C9444030895CF93E3
:10092000DF93EB01009759F4BA0180E090E00E9458
:100930007604E89AD093C905C093C8050AC0019708
:1009400041F4CA010E944403E99AD093CB05C093B5
:10095000CA05DF91CF9108952FEF89EF90E02150E4
:1009600080409040E1F700C0000062E070E084E465
:100970000E948501892B51F081E090E09093D10590
:100980008093D00581E991E00C945F11F89498E090
:1009900088E10FB6F894A895809360000FBE9093FD
:1009A0006000FFCF41E050E065E070E082E40E942B
:1009B000620041E050E064E070E082E40E94620086
:1009C00041E050E063E070E082E40E94620041E0B8
:1009D00050E062E070E082E40E94620041E050E09A
:1009E00061E070E082E40E94620041E050E060E07B
:1009F00070E082E40E94620041E050E067E070E055
:100A000084E40E94620041E050E066E070E084E42B
:100A10000E94620041E050E065E070E084E40E94E2
:100A2000620041E050E064E070E084E40E94620013
:100A300041E050E063E070E084E40C946200AF9227
:100A4000BF92CF92DF92EF92FF920F931F93CF93BB
:100A5000DF936B01EC018AEBE82E85E0F82E00E0D5
:100A600010E0AA24A394B12C0C151D058CF4BE86AD
:100A7000AD861A8A198AF701119211927F01698154
:100A80007A8188810E9410010F5F1F4F6B96ECCF17
:100A9000DF91CF911F910F91FF90EF90DF90CF905A
:100AA000BF90AF900895CF92DF92EF92FF920F9395
:100AB0001F93CF93DF936B01EC018AEBE82E85E067
:100AC000F82E00E010E00C151D058CF41E861D8626
:100AD0001A8A198AF701119211927F0169817A812C
:100AE00088810E94D7000F5F1F4F6B96ECCFDF917C
:100AF000CF911F910F91FF90EF90DF90CF900895CD
:100B000020E030E0261737073CF4FC01128A118AF6
:100B10002F5F3F4F4B96F6CF089560935505709326
:100B2000560580935705909358050895FC01748BE2
:100B3000638B0895CF93DF93FC01258536852130A3
:100B40003105F1F4EC01728B618B4130510541F4B8
:100B5000508B47876481758183810E94D70009C0CB
:100B6000452BA1F4108A17866481758183810E94C8
:100B700010016F8178858E81DF91CF910C94D70021
:100B800082EA91E0DF91CF910C945F11DF91CF91D8
:100B90000895CF92DF92EF92FF920F931F93CF931E
:100BA000DF937B01EC0100E010E0CC24C394D12C56
:100BB0000E151F056CF4DA8EC98E41E050E06FEF20
:100BC0007FE7CE010E949A050F5F1F4F6B96F0CF13
:100BD000DF91CF911F910F91FF90EF90DF90CF9019
:100BE0000895FC0120E030E081E090E0261737070F
:100BF0005CF4418D528D4130510511F480E090E05C
:100C00002F5F3F4F7B96F2CF0895FC0121853285FF
:100C1000621B730B161617061CF441E050E005C06A
:100C200071956195710940E050E00C949A05CF925E
:100C3000DF92EF92FF92CF93DF93EC0169857A8583
:100C4000072E000C880B990B0E9401106B017C0190
:100C50008B859C85BC01990F880B990B0E94011014
:100C60009B01AC01C701B6010E94570F20E030E0A4
:100C700048EC52E40E94B61020E030E040E05FE330
:100C80000E94E60E0E94C90FCB01DF91CF91FF9029
:100C9000EF90DF90CF900895CF92DF92EF92FF9286
:100CA000CF93DF93EC01072E000C880B990B0E9469
:100CB000011020E030E048EC52E40E94570F6B0135
:100CC0007C014B855C85BA01550F880B990B0E94FE
:100CD00001109B01AC01C701B6010E94B6100E9431
:100CE000C90FCE01DF91CF91FF90EF90DF90CF90B1
:100CF0000C9405068F929F92AF92BF92CF92DF9293
:100D0000EF920F931F93CF93DF93CDB7DEB7FC0124
:100D1000608352834183238315830483E682D086D4
:100D2000C7821286118616861586128A118A8E85CA
:100D30009F85948B838B858A968AA78AB08E128E24
:100D4000118ECF01DF91CF911F910F91EF90DF9026
:100D5000CF90BF90AF909F908F9008952BE1289FE8
:100D6000F001299FF00D1124E15AFA4F218D328DA7
:100D70002130310561F56130710549F4108A17861B
:100D800040E050E06FEF7FE7CF010C949A05672BAE
:100D9000F1F4418952892FEF3FE7241B350B34874B
:100DA000238712861186128A118A128E118E3F9322
:100DB0002F939F938F9384EC91E09F938F930E9446
:100DC00049110F900F900F900F900F900F90089572
:100DD0002FEF89EF90E0215080409040E1F700C074
:100DE000000060E070E083E40E948501892B61F0DF
:100DF00061E070E083E40E948501892B29F061E0C5
:100E000070E081E090E012C060E070E083E40E9456
:100E1000850161E070E0892B39F483E40E9485014B
:100E2000892B31F060E070E080E090E00E94AE0637
:100E300062E070E083E40E948501892B51F063E059
:100E400070E083E40E948501892B19F060E070E076
:100E500015C062E070E083E40E948501892B29F0CF
:100E600060E070E081E090E00BC063E070E083E45C
:100E70000E948501892B31F061E070E082E090E012
:100E80000C94AE0608958F929F92AF92BF92CF922C
:100E9000DF92EF92FF920F931F93CF93DF930AEBB2
:100EA00015E0C5E6D5E08F819885019709F082C0ED
:100EB0008B859C85181619060CF07CC0F801808182
:100EC00091817C01FFEFEF1AFF0AF801F182E082C5
:100ED0006D857E85072E000C880B990B0E940110F2
:100EE00020E030E044EB53E40E94B61020E030E014
:100EF00040E752E40E94570F2F85388949895A8963
:100F00000E94570F9B01AC0160E070E08AE794E417
:100F10000E94570F20915505309156054091570575
:100F2000509158050E94570F4B015C01B701FF0C0F
:100F3000880B990B0E9401106B017C0120E030E0CE
:100F400040E05FE3C501B4010E94B6109B01AC0113
:100F5000C701B6010E94520F69817A81181624F0E8
:100F600088810E94D70003C088810E941001F80187
:100F700060817181072E000C880B990B0E94011073
:100F8000A50194010E94B11087FD14C0F8011182DF
:100F900010828B859C8501979C878B8729853A8554
:100FA0008B819C812130310511F4019601C001979C
:100FB0009C838B830E5F1F4F6B96F5E0C63BDF076C
:100FC00009F071CFDF91CF911F910F91FF90EF90BA
:100FD000DF90CF90BF90AF909F908F900895EFE6F5
:100FE000F0E080818F7D808380818D7F8083808110
:100FF0008B7F808380818E7F80830895892B29F069
:1010000080916F00806280936F00672B29F0809140
:101010006F00826080936F00452B29F080916F00F4
:10102000846080936F00232B29F080916F00816092
:1010300080936F000895209180002F73209380008B
:10104000209180002F7C209380008230910549F010
:101050008330910551F0019769F48091800080649C
:1010600007C080918000806803C080918000806C00
:10107000809380006230710551F06330710559F042
:101080006130710569F480918000806107C08091B2
:101090008000806203C08091800080638093800024
:1010A0000895CF92DF92EF92FF9220E030E04AE77E
:1010B00054E40E94570F6B017C0127E337E346E8B5
:1010C0005BE30E94520F18161CF081E090E033C0E1
:1010D00027E337E346E05DE3C701B6010E94520F04
:1010E00018161CF088E090E026C027E337E346E8B6
:1010F0005EE3C701B6010E94520F18161CF080E48F
:1011000090E019C027E337E346E85FE3C701B60183
:101110000E94520F18161CF080E091E00CC027E3EB
:1011200037E346E850E4C701B6010E94520F181693
:1011300034F080E094E090935405809353058091BF
:101140008100887F809381008091530590915405A0
:1011500080349105C9F04CF48130910589F00897ED
:10116000E1F480918100826016C0811521E0920730
:1011700079F08115944089F48091810085600BC0DD
:1011800080918100816007C080918100836003C0ED
:1011900080918100846080938100FF90EF90DF90C8
:1011A000CF900895209180002C7F20938000209183
:1011B0008100277E2093810001978F30910508F0F0
:1011C00048C08C5C9F4FFC010C94DF0E8091800026
:1011D000816007C080918000826003C080918000A0
:1011E000836080938000089580918000816007C0B3
:1011F00080918000826003C0809180008360809332
:10120000800011C080918000816007C080918000C3
:10121000826003C080918000836080938000809111
:101220008100806114C080918100886010C080912D
:101230008000816007C080918000826003C080913F
:10124000800083608093800080918100886180931A
:1012500081000895CF92DF92EF92FF92CF93DF93B8
:10126000EA0120E030E040E05FE30E94B6106B014D
:101270007C0184E090E00E94D208C701B6010E9480
:101280005108EFE6F0E080818260808320E030E06A
:101290004AE754E4C701B6010E94570F6B017C0175
:1012A0002091530530915405032E000C440B550B2F
:1012B00060E074E284EF90E00E949E0ECA01B901E2
:1012C0000E94FF0F9B01AC01C701B6010E94B6103E
:1012D00020E030E040E85FE30E94E60E0E94C90F84
:1012E0007093890060938800D093D305C093D20592
:1012F000DF91CF91FF90EF90DF90CF9008954F92C4
:101300005F926F927F928F929F92AF92BF92CF9295
:10131000DF92EF92FF920F931F93CF93DF9300D052
:1013200000D0CDB7DEB72B013C0149015A01E9825B
:10133000FA820B831C838EE090E00E94D208C301E6
:10134000B2010E94510820E030E04AE754E4C301B2
:10135000B2010E94570F2B013C012091530530919F
:101360005405032E000C440B550BC12C84E2D82EDF
:1013700084EFE82EF12CC701B6010E949E0ECA012F
:10138000B9010E94FF0F9B01AC01C301B2010E9491
:10139000B61020E030E040E85FE30E94E60E0E94D5
:1013A000C90F96E8692E712CF3017183608320E0E8
:1013B00030E04AE754E4C501B4010E94570F4B01E5
:1013C0005C012091530530915405032E000C440B11
:1013D000550BC701B6010E949E0ECA01B9010E94B9
:1013E000FF0F9B01AC01C501B4010E94B61020E0C3
:1013F00030E040E85FE30E94E60E0E94C90F08E873
:1014000010E0F8017183608320E030E04AE754E4A3
:1014100069817A818B819C810E94570F4B015C010D
:101420002091530530915405032E000C440B550BAD
:10143000C701B6010E949E0ECA01B9010E94FF0FAA
:101440009B01AC01C501B4010E94B61020E030E060
:1014500040E85FE30E94E60E0E94C90F2AE8E22EF0
:10146000F12CF7017183608363E070E083E090E02A
:101470000E941B08F301808191819F938F938CEED2
:1014800091E09F938F930E944911F801808191818F
:101490009F938F9387EF91E09F938F930E944911C1
:1014A000F701808191819F938F9383E092E09F93D6
:1014B0008F930E9449110FB6F894DEBF0FBECDBFC7
:1014C0000F900F900F900F90DF91CF911F910F9180
:1014D000FF90EF90DF90CF90BF90AF909F908F9054
:1014E0007F906F905F904F9008951F920F920FB66C
:1014F0000F9211242F933F934F935F936F937F939A
:101500008F939F93AF93BF93EF93FF93E091D20597
:10151000F091D3050995FF91EF91BF91AF919F9104
:101520008F917F916F915F914F913F912F910F908C
:101530000FBE0F901F9018951F920F920FB60F922B
:1015400011242F933F934F935F936F937F938F93C8
:101550009F93AF93BF93EF93FF93E091D205F091E8
:10156000D3050995FF91EF91BF91AF919F918F9115
:101570007F916F915F914F913F912F910F900FBE8F
:101580000F901F9018951F920F920FB60F92112473
:101590002F933F934F935F936F937F938F939F937B
:1015A000AF93BF93EF93FF93E091D205F091D305F2
:1015B0000995FF91EF91BF91AF919F918F917F918D
:1015C0006F915F914F913F912F910F900FBE0F90B0
:1015D0001F9018951F920F920FB60F9211242F9300
:1015E0003F934F935F936F937F938F939F93AF93AB
:1015F000BF93EF93FF93E091D205F091D305099546
:10160000FF91EF91BF91AF919F918F917F916F91DA
:101610005F914F913F912F910F900FBE0F901F90B0
:1016200018958FE092E00E945F1187E192E00E949E
:101630005F1188E392E00E945F118AE592E00E94C8
:101640005F1181E892E00E945F1182EB92E00E94BC
:101650005F118FED92E00E945F118BEE92E00E948D
:101660005F118CE093E00E945F118DE293E00E9495
:101670005F1182E493E00E945F1186E593E00E948F
:101680005F118BE693E00E945F1188E793E00C9472
:101690005F11CF92DF92EF92FF920F931F93CF9340
:1016A000DF936C017B01633071055CF0C601049629
:1016B0000E9423118C01F601C2810C2E000CDD0B5F
:1016C000E097F6012181283409F465C1ECF4243453
:1016D00009F43DC13CF4213409F4E1C0223409F499
:1016E00065C085C1263409F441C00CF442C181E7CC
:1016F00094E00E945F110FE515E0C0E0D0E09EE8A5
:10170000E92E94E0F92EF3C0263509F478C0C4F42C
:10171000223509F49CC0233509F069C189EC94E0B5
:101720000E945F1163E070E08FE595E0DF91CF915B
:101730001F910F91FF90EF90DF90CF900C94800558
:10174000283609F44AC1223709F437C1273609F08F
:101750004EC18EE994E00E945F110FE515E0C0E0F4
:10176000D0E08BEBE82E84E0F82ED9C0F5E0EF1640
:10177000F1041CF485E893E03CC1DF93CF931F9301
:101780000F9383EB93E09F938F930E9449110F90E7
:101790000F900F900F900F900F902BE12C9FC00196
:1017A0002D9F900D112441E050E01CC0F5E0EF1694
:1017B000F10404F3DF93CF931F930F9386ED93E02F
:1017C0009F938F930E9449110F900F900F900F904D
:1017D0000F900F902BE12C9FC0012D9F900D112495
:1017E00040E050E0B801815A9A4FDF91CF911F91AC
:1017F0000F91FF90EF90DF90CF900C949A05F5E059
:10180000EF16F1040CF4B6CF1F930F93DF93CF9331
:101810008AEF93E09F938F930E9449110F900F904E
:101820000F900F900F900F902BE12C9FC0012D9FD8
:10183000900D1124B801815A9A4FDF91CF911F91D9
:101840000F91FF90EF90DF90CF900C949605F5E00C
:10185000EF16F1040CF48ECF1F930F93DF93CF9309
:101860008DE194E09F938F930E9449110F900F9008
:101870000F900F900F900F902BE12C9FC0012D9F88
:10188000900D1124B801815A9A4FDF91CF911F9189
:101890000F91FF90EF90DF90CF900C944C06F5E005
:1018A000EF16F1040CF466CF1F930F93DF93CF93E1
:1018B00086E494E09F938F930E9449110F900F90BC
:1018C0000F900F900F900F902BE12C9FC0012D9F38
:1018D000900D1124B801815A9A4FDF91CF911F9139
:1018E0000F91FF90EF90DF90CF900C940506C80108
:1018F0000E9417069F938F93DF93CF93FF92EF92EF
:101900000E9449112196055E1F4F0F900F900F9076
:101910000F900F900F90C330D10549F774C0F801B4
:1019200082858F9381858F93DF93CF93FF92EF9280
:101930000E9449112196055E1F4F0F900F900F9046
:101940000F900F900F90C330D10549F75CC089ED1F
:1019500094E00E945F1163E070E08FE595E0DF9115
:10196000CF911F910F91FF90EF90DF90CF900C944B
:10197000530589EE94E00E945F1163E070E08FE50B
:1019800095E0DF91CF911F910F91FF90EF90DF9045
:10199000CF900C941F0588EF94E00E945F1163E0E4
:1019A00070E08FE595E0DF91CF911F910F91FF904F
:1019B000EF90DF90CF900C94C90580E195E00E94F4
:1019C0005F11F89498E088E10FB6F894A895809399
:1019D00060000FBE90936000FFCFDF91CF911F9109
:1019E0000F91FF90EF90DF90CF900C94110B89E155
:1019F00095E0DF91CF911F910F91FF90EF90DF90D5
:101A0000CF900C945F11DF91CF911F910F91FF90B8
:101A1000EF90DF90CF9008950F931F93CF93DF93B4
:101A20008A01E90120E130E040E050E00E94C00E70
:101A3000CA01B901980140E050E00E94C00E215057
:101A400031093093C5002093C40088E98093C10018
:101A50008EE08093C200D093D505C093D405DF916A
:101A6000CF911F910F9108959091C00095FFFCCFE9
:101A70008093C60080E090E008958091C00087FFC9
:101A8000FCCF8091C60090E008951F920F920FB690
:101A90000F9211242F933F934F935F936F937F93F4
:101AA0008F939F93AF93BF93EF93FF9380E891E061
:101AB0000E943D0D8D3071F08A3331F0E091BA050E
:101AC0008A30B9F46E2F08C091E09093BA058093E4
:101AD000D60517C06091BA0570E0FB01EA52FA4FD3
:101AE0001082E091D405F091D50586ED95E0099539
:101AF00008C091E09E0F9093BA05F0E0EA52FA4FC9
:101B00008083FF91EF91BF91AF919F918F917F91D2
:101B10006F915F914F913F912F910F900FBE0F905A
:101B20001F901895CF93DF93CDB7DEB76B970FB6A5
:101B3000F894DEBF0FBECDBF1092D1051092D00534
:101B400080E891E09093F5058093F4059093F70574
:101B50008093F60529E43BE040E051EE60E074E25A
:101B600084EF90E00E940C0D41E050E06CEA74E0DC
:101B700080E090E00E948F040E94D2041F9282E0D5
:101B8000F82EFF9296E6892E982C96EEA92E9FE3CA
:101B9000B92E25E0C22ED12C34E4E32E04E010E06F
:101BA00024E443E050E064E4CE0101960E947A060A
:101BB0008BE1FE013196AFE5B5E001900D928A957B
:101BC000E1F71F92FF92C12CD12C42E4E42E07E0F2
:101BD00010E024E446E050E064E4CE0101960E9467
:101BE0007A068BE1FE013196AAE7B5E001900D92ED
:101BF0008A95E1F71F92FF9253E0C52ED12C02E0A7
:101C000010E022E441E050E062E4CE0101960E943F
:101C10007A068BE1FE013196A5E9B5E001900D92BF
:101C20008A95E1F768EE76E088E090E00E94540340
:101C300068EE76E089E090E00E94540368EE76E07A
:101C40008AE090E00E94540368EE76E08BE090E03A
:101C50000E945403789485E991E00E945F110F90EF
:101C60000F900F900F900F900F908091D005909152
:101C7000D10581309105E1F080F08230910559F174
:101C800083309105B1F72FEF83ED90E32150804031
:101C90009040E1F700C00000E8CF65E070E082E42A
:101CA0000E94D70064E070E082E40E941001DDCF62
:101CB00081E991E00E945F1165E070E082E40E949A
:101CC000100164E070E082E40E94D7001093D10517
:101CD0000093D005CACF89E991E00E945F1160E0CE
:101CE00070E080E89FE30E948D0563E070E08FE57F
:101CF00095E00E941F0543E457E060E070E080E853
:101D00009FE30E942A0963E070E08FE595E00E945E
:101D1000C90563E070E08FE595E00E94F105892B2D
:101D2000C1F383E090E09093D1058093D0058EE9D4
:101D300091E00E945F110E94E70297CFA1E21A2E64
:101D4000AA1BBB1BFD010DC0AA1FBB1FEE1FFF1F5F
:101D5000A217B307E407F50720F0A21BB30BE40BAF
:101D6000F50B661F771F881F991F1A9469F76095F6
:101D70007095809590959B01AC01BD01CF010895B0
:101D8000052E97FB1EF400940E94D70E57FD07D036
:101D90000E949E0E07FC03D04EF40C94D70E509573
:101DA0004095309521953F4F4F4F5F4F0895909547
:101DB0008095709561957F4F8F4F9F4F0895EE0FDF
:101DC000FF1F0590F491E02D09945058BB27AA27D6
:101DD0000E94FD0E0C9477100E94691038F00E944A
:101DE000701020F039F49F3F19F426F40C9466101B
:101DF0000EF4E095E7FB0C946010E92F0E94881028
:101E000058F3BA17620773078407950720F079F42F
:101E1000A6F50C94AA100EF4E0950B2EBA2FA02D67
:101E20000B01B90190010C01CA01A0011124FF2787
:101E3000591B99F0593F50F4503E68F11A16F04082
:101E4000A22F232F342F4427585FF3CF4695379581
:101E50002795A795F0405395C9F77EF41F16BA0B46
:101E6000620B730B840BBAF09150A1F0FF0FBB1FF4
:101E7000661F771F881FC2F70EC0BA0F621F731F3D
:101E8000841F48F4879577956795B795F7959E3F9A
:101E900008F0B0CF9395880F08F09927EE0F97952B
:101EA000879508950E943C1008F481E008950E94EF
:101EB0006B0F0C9477100E94701058F00E946910FC
:101EC00040F029F45F3F29F00C94601051110C94FC
:101ED000AB100C9466100E94881068F39923B1F33C
:101EE000552391F3951B550BBB27AA276217730740
:101EF000840738F09F5F5F4F220F331F441FAA1FD4
:101F0000A9F335D00E2E3AF0E0E832D0915050408F
:101F1000E695001CCAF72BD0FE2F29D0660F771F3D
:101F2000881FBB1F261737074807AB07B0E809F023
:101F3000BB0B802DBF01FF2793585F4F3AF09E3FA8
:101F4000510578F00C9460100C94AB105F3FE4F3F3
:101F5000983ED4F3869577956795B795F7959F5FEB
:101F6000C9F7880F911D9695879597F90895E1E037
:101F7000660F771F881FBB1F621773078407BA0796
:101F800020F0621B730B840BBA0BEE1F88F7E095F1
:101F900008950E94D00F6894B1110C94AB1008956D
:101FA0000E94901088F09F5798F0B92F9927B75149
:101FB000B0F0E1F0660F771F881F991F1AF0BA95ED
:101FC000C9F714C0B13091F00E94AA10B1E0089591
:101FD0000C94AA10672F782F8827B85F39F0B93F83
:101FE000CCF3869577956795B395D9F73EF49095A0
:101FF0008095709561957F4F8F4F9F4F0895E8941E
:1020000009C097FB3EF490958095709561957F4F40
:102010008F4F9F4F9923A9F0F92F96E9BB279395EE
:10202000F695879577956795B795F111F8CFFAF4FE
:10203000BB0F11F460FF1BC06F5F7F4F8F4F9F4F2F
:1020400016C0882311F096E911C0772321F09EE88D
:10205000872F762F05C0662371F096E8862F70E0F3
:1020600060E02AF09A95660F771F881FDAF7880FCD
:102070009695879597F90895990F0008550FAA0B23
:10208000E0E8FEEF16161706E807F907C0F012168B
:102090001306E407F50798F0621B730B840B950B8E
:1020A00039F40A2661F0232B242B252B21F40895E3
:1020B0000A2609F4A140A6958FEF811D811D089580
:1020C00097F99F6780E870E060E008959FEF80ECEB
:1020D000089500240A94161617061806090608958E
:1020E00000240A9412161306140605060895092EF4
:1020F0000394000C11F4882352F0BB0F40F4BF2B63
:1021000011F460FF04C06F5F7F4F8F4F9F4F0895A2
:1021100057FD9058440F551F59F05F3F71F0479598
:10212000880F97FB991F61F09F3F79F0879508957D
:10213000121613061406551FF2CF4695F1DF08C09C
:10214000161617061806991FF1CF869571056105B9
:1021500008940895E894BB2766277727CB0197F961
:1021600008950E943C1008F48FEF08950E94C91052
:102170000C9477100E94691038F00E94701020F0C3
:10218000952311F00C9460100C94661011240C949B
:10219000AB100E94881070F3959FC1F3950F50E02B
:1021A000551F629FF001729FBB27F00DB11D639F09
:1021B000AA27F00DB11DAA1F649F6627B00DA11DAF
:1021C000661F829F2227B00DA11D621F739FB00D55
:1021D000A11D621F839FA00D611D221F749F3327C5
:1021E000A00D611D231F849F600D211D822F762F5E
:1021F0006A2F11249F5750409AF0F1F088234AF03B
:10220000EE0FFF1FBB1F661F771F881F91505040A6
:10221000A9F79E3F510580F00C9460100C94AB1010
:102220005F3FE4F3983ED4F3869577956795B7952D
:10223000F795E7959F5FC1F7FE2B880F911D969547
:10224000879597F90895FC0188279927E8942191AB
:102250002032E9F3293010F02E30C8F32B3241F050
:102260002D3239F4689404C00E944111820F911DEF
:10227000219120532A30C0F31EF4909581959F4FF1
:1022800008957AE0979F902D879F802D910D1124BE
:102290000895A0E0B0E0EFE4F1E10C944014AE0149
:1022A0004B5F5F4FFA0161917191AF018091F6052B
:1022B0009091F7050E94B211E2E00C945C140F9328
:1022C0001F93CF93DF93E091F605F091F7052381FB
:1022D00021FF1BC08C01D0E0C0E0F80181918F018B
:1022E0006091F6057091F705DB011896ED91FC9170
:1022F0001997882331F00995892B79F3DFEFCFEF18
:10230000ECCF8AE00995892B19F08FEF9FEF02C07F
:102310008D2F9C2FDF91CF911F910F910895AEE0EB
:10232000B0E0E5E9F1E10C943E140D891E8986E0E8
:102330008C831A8309838FEF9FE79E838D83AE0181
:10234000475E5F4F6F89788DCE0101960E94B21172
:102350002F813885F801E20FF31F10822E96E4E0FA
:102360000C945A14ACE0B0E0E8EBF1E10C943014BA
:102370007C016B018A01FC0117821682838181FF37
:10238000BDC1CE0101964C01F7019381F60193FD89
:10239000859193FF81916F01882309F4ABC1853248
:1023A00039F493FD859193FF81916F01853229F472
:1023B000B70190E00E949A13E7CF512C312C20E016
:1023C0002032A0F48B3269F030F4803259F083323D
:1023D00069F420612CC08D3239F0803339F42160EA
:1023E00026C02260246023C0286021C027FD27C0AA
:1023F00030ED380F3A3078F426FF06C0FAE05F9EE1
:10240000300D1124532E13C08AE0389E300D112454
:10241000332E20620CC08E3221F426FD6BC1206465
:1024200006C08C3611F4206802C0883641F4F601EB
:1024300093FD859193FF81916F018111C1CF982FF9
:102440009F7D9554933028F40C5F1F4FFFE3F98371
:102450000DC0833631F0833771F0833509F05BC0EE
:1024600022C0F801808189830E5F1F4F442443946A
:10247000512C540115C03801F2E06F0E711CF801A7
:10248000A080B18026FF03C0652D70E002C06FEF11
:102490007FEFC5012C870E948F132C0183012C85AF
:1024A0002F77222E17C03801F2E06F0E711CF80151
:1024B000A080B18026FF03C0652D70E002C06FEFE1
:1024C0007FEFC5012C870E9484132C012C85206886
:1024D000222E830123FC1BC0832D90E04816590651
:1024E000B0F4B70180E290E00E949A133A94F4CFDE
:1024F000F50127FC859127FE81915F01B70190E0EE
:102500000E949A1331103A94F1E04F1A5108411485
:10251000510471F7E5C0843611F0893639F5F801B8
:1025200027FF07C060817181828193810C5F1F4FFB
:1025300008C060817181072E000C880B990B0E5F1B
:102540001F4F2F76722E97FF09C09095809570953A
:1025500061957F4F8F4F9F4F2068722E2AE030E0A9
:10256000A4010E94D213A82EA81844C0853729F4CC
:102570002F7EB22E2AE030E025C0F22FF97FBF2E49
:102580008F36C1F018F4883579F0B4C0803719F06F
:10259000883721F0AFC02F2F2061B22EB4FE0DC0BE
:1025A0008B2D8460B82E09C024FF0AC09F2F96602F
:1025B000B92E06C028E030E005C020E130E002C0BE
:1025C00020E132E0F801B7FE07C0608171818281AD
:1025D00093810C5F1F4F06C06081718180E090E0A5
:1025E0000E5F1F4FA4010E94D213A82EA818FB2D26
:1025F000FF777F2E76FE0BC0372D3E7FA51450F45B
:1026000074FE0AC072FC08C0372D3E7E05C0BA2C8D
:10261000372D03C0BA2C01C0B52C34FF0DC0FE010C
:10262000EA0DF11D8081803311F4397E09C032FF3B
:1026300006C0B394B39404C0832F867809F0B39492
:1026400033FD13C030FF06C05A2CB31418F4530CDA
:102650005B18B32CB31468F4B70180E290E03C87B8
:102660000E949A13B3943C85F5CFB31410F43B1831
:1026700001C0312C34FF12C0B70180E390E03C87E9
:102680000E949A133C8532FF17C031FD03C088E7D2
:1026900090E002C088E590E0B7010CC0832F8678F7
:1026A00059F031FF02C08BE201C080E237FD8DE2BC
:1026B000B70190E00E949A13A51438F4B70180E3A3
:1026C00090E00E949A135A94F7CFAA94F401EA0D6D
:1026D000F11D8081B70190E00E949A13A110F5CFFF
:1026E000332009F451CEB70180E290E00E949A13A2
:1026F0003A94F6CFF7018681978102C08FEF9FEF62
:102700002C96E2E10C944C14FC0105906150704051
:102710000110D8F7809590958E0F9F1F0895FC01AA
:102720006150704001900110D8F7809590958E0F00
:102730009F1F08950F931F93CF93DF93FB01238176
:1027400021FD03C08FEF9FEF28C022FF16C04681F6
:102750005781248135814217530744F4A081B18108
:102760009D012F5F3F4F318320838C9326813781DA
:102770002F5F3F4F3783268310C0EB01092F182F9F
:102780000084F185E02D0995892BE1F68E819F81EA
:1027900001969F838E83812F902FDF91CF911F9180
:1027A0000F910895FA01AA27283051F1203181F1C3
:1027B000E8946F936E7F6E5F7F4F8F4F9F4FAF4F49
:1027C000B1E03ED0B4E03CD0670F781F891F9A1F5C
:1027D000A11D680F791F8A1F911DA11D6A0F711D10
:1027E000811D911DA11D20D009F468943F912AE01C
:1027F000269F11243019305D3193DEF6CF01089504
:10280000462F4770405D4193B3E00FD0C9F7F6CF34
:10281000462F4F70405D4A3318F0495D31FD4052FC
:10282000419302D0A9F7EACFB4E0A6959795879592
:1028300077956795BA95C9F7009761057105089571
:102840009B01AC010A2E069457954795379527951D
:10285000BA95C9F7620F731F841F951FA01D0895B5
:102860002F923F924F925F926F927F928F929F92A0
:10287000AF92BF92CF92DF92EF92FF920F931F938E
:10288000CF93DF93CDB7DEB7CA1BDB0B0FB6F8943F
:10289000DEBF0FBECDBF09942A88398848885F847F
:1028A0006E847D848C849B84AA84B984C884DF80F0
:1028B000EE80FD800C811B81AA81B981CE0FD11DD4
:1028C0000FB6F894DEBF0FBECDBFED010895F894AA
:0228D000FFCF38
:1028D20000000100020003000400050000000100E6
:1028E20002000300040005000000010002000300D2
:1028F20004000500060007000000010002000300BA
:1029020004000500000001000200030004000500AD
:102912000000010002000300040005000600070099
:102922000000010002000300040005000600070089
:10293200000001000200030004000500060006007A
:102942000000010002000300040005000600070069
:102952000000000300000000340D3D0D000025645E
:102962000041435400494E4900484F4D4500504FE5
:1029720053004F72646572204661696C65643A2047
:102982004D6F746F72206973206E6F7420656E6173
:10299200626C6500454E4420696E74657272757092
:1029A20074206D6F746F722025642E204D61782023
:1029B2005374657073203D2025640A0049435231E7
:1029C200203D2025640A004F43523141203D2025FD
:1029D200640A004F43523142203D2025640A000A16
:1029E20055736167653A003A466D2E6E6E6E202D04
:1029F2003E203A466F72776172645B6D6F746F72DC
:102A02005D2E7374657073003A426D2E6E6E6E2089
:102A12002D3E203A4261636B776172645B6D6F7425
:102A22006F725D2E7374657073003A526D2E6E6E06
:102A32006E202D3E203A52656C61746976655B6D3D
:102A42006F746F725D2E70657263656E7461676517
:102A5200003A566D2E6E6E6E202D3E203A56656CF3
:102A62006F636974795B6D6F746F725D2E726576D8
:102A72006F6C7574696F6E735065724D696E7574A3
:102A820065003A416D2E6E6E6E202D3E203A4162F7
:102A9200736F6C757465506F736974696F6E5B6D7B
:102AA2006F746F725D2E706F736974696F6E003A26
:102AB20053202D3E203A53746F70003A47202D3E2A
:102AC200203A47657452656C6174697665506F731C
:102AD2006974696F6E4D6F746F7273003A67202D5F
:102AE2003E203A6765744162736F6C757465506F0E
:102AF200736974696F6E4D6F746F7273003A44201C
:102B02002D3E203A44697361626C654D6F746F7239
:102B120073003A45202D3E203A456E61626C654D48
:102B22006F746F7273003A48202D3E203A486F6DE1
:102B3200696E67526F7574696E65003A72202D3E38
:102B4200203A7265736574003A68202D3E203A6817
:102B5200656C700A004E6F7420656E6F7567682031
:102B6200617267756D656E74732C2075736520686C
:102B7200656C7020636F6D6D616E6420283A682900
:102B82002E20004D6F76696E6720666F72776172D4
:102B920064202564207374657073206D6F746F7286
:102BA200202564200A004D6F76696E67206261639A
:102BB2006B77617264202564207374657073206D75
:102BC2006F746F72202564200A004D6F746F72203B
:102BD2002564207370656564206368616E6765644F
:102BE20020746F2025642072706D200A004D6F766C
:102BF200696E67206D6F746F7220256420746F2078
:102C020072656C617469766520706F736974696F3F
:102C12006E2025640A004D6F746F72202564206156
:102C220062736F6C75746520706F736974696F6E0F
:102C3200206368616E67656420746F202564200AD2
:102C42000052656C617469766520706F736974698E
:102C52006F6E206F66206D6F746F72733A004D6FE6
:102C6200746F722025643A20256425250A0041628A
:102C7200736F6C75746520706F736974696F6E2001
:102C82006F66206D6F746F72733A004D6F746F725E
:102C92002025643A2025640A0053746F7070696EAF
:102CA20067206D6F746F7273004D6F746F72732053
:102CB20064697361626C6564004D6F746F72732036
:102CC200656E61626C6564005374617274696E67EB
:102CD20020686F6D696E6720726F7574696E65002A
:102CE2005265736574696E6700436F6D6D616E64E2
:102CF200206E6F7420666F756E642C20757365206C
:102D020068656C7020636F6D6D616E6420283A682F
:042D1200292E200046
:00000001FF
